:020000040802F0
:10D8000090F800F06DE9024520F007016FF0000C80
:10D8100010F0070491F820F040F049804FF0000428
:10D820006FF00700D1E9002391F840F000F1080003
:10D8300082FA4CF2A4FA8CF283FA4CF3A2FA8CF33B
:10D840004BBBD1E9022382FA4CF200F10800A4FAA2
:10D850008CF283FA4CF3A2FA8CF3E3B9D1E90423F6
:10D8600082FA4CF200F10800A4FA8CF283FA4CF32D
:10D87000A2FA8CF37BB9D1E9062301F1200182FAE7
:10D880004CF200F10800A4FA8CF283FA4CF3A2FAED
:10D890008CF3002BC6D0002A04BF04301A4612BAFB
:10D8A000B2FA82F2FDE8024500EBD2007047D1E9FE
:10D8B000002304F00305C4F100004FEAC50514F08D
:10D8C000040F91F840F00CFA05F562EA05021CBF5E
:10D8D00063EA050362464FF00004A9E70000000078
:10D8E000E9D9020811DD02085DDD0208F1D902085C
:10D8F000F1D90208F1D90208B5E1020825000308B0
:10D90000150003081D0003083501030893000308F0
:10D9100001010308490103086B0103088D01030895
:10D92000AF010308C1010308D3010308F51603087A
:10D930009317030841040308251003084708030848
:10D94000B1100308B9F7020849F802086DF8020897
:10D95000C1F80208690703085D0D03087D0C030880
:10D9600069110308A51103080D1203082B120308FF
:10D9700049120308611203086D1203080902030823
:10D9800081FD0208F9020308670303088103030805
:10D990009DFD0208B9FD0208C9FD0208D3FD020879
:10D9A00009FE02083FFE02086DFE020895FE02080D
:10D9B000BDFE0208C7FE0208CFFE020805FF0208EE
:10D9C00091F2020825F3020895F30208A1F3020878
:10D9D000B9F30208D1F3020849F40208B5EE0208CF
:10D9E00095EF0208D1EF0208032303600B60704734
:10D9F0000149024800F0F0B8A4320308C03203081D
:10DA0000BFF34F8F0449054BCA6802F4E062134329
:10DA1000CB60BFF34F8FFEE700ED00E00400FA0596
:10DA200008B504F0B5F9342004F0C8F9034804F04F
:10DA3000F1F9BDE8084004F0B9B900BF00C0000822
:10DA40002C4B00B51B68052B96BF2B4A2B4852F870
:10DA500023008FB00023FF22E02103F0F5FEFF201A
:10DA600002F0D8FAE02002F0D9FA254A032100207A
:10DA700002F028FB234A0E21002002F023FB224A59
:10DA80000A21002002F01EFB204B21491A68214B7D
:10DA90001B680968009103A81F4901F00DFE03AA45
:10DAA0000B21002002F00EFB1C4B1D491A681D4B78
:10DAB0001B680968009103A81B4901F0FDFD03AA3A
:10DAC0000C21002002F0FEFA184B19491A68194B74
:10DAD00003A81B6801F0F0FD03AA0D21002002F04D
:10DAE000F1FA052002F0ACFC0128FAD1FFF798FF0B
:10DAF000FFF786FF080E0010D4320308EC3203084B
:10DB0000FA3203081B3303082B330308140E0010EA
:10DB1000200E0010180E001037330308240E0010DA
:10DB20000C0E00101C0E001052330308100E0010D3
:10DB30006E3303082C0E00101D4B1E4C1E4D1F4E45
:10DB4000DFF88CC080B541F6DC72186001F17040DE
:10DB500090421B4F1B4A1C48DFF878E015D80B6831
:10DB600013604B6803608B682360CB682B600B6984
:10DB700033604B693B608B69CEF80030CB69CCF8E1
:10DB8000003004F03DFEFFF75BFF4FF00508C3F8DF
:10DB900000800023CCF80030CEF800303B603360CA
:10DBA0002B60236003601360084B1960E9E700BF36
:10DBB000080E0010200E0010240E00101C0E001085
:10DBC0000C0E0010140E0010180E0010280E00107D
:10DBD0002C0E0010100E001008B5FF2200230C467A
:10DBE000FC2103F031FEFF2002F014FAE02002F0E5
:10DBF00015FA22460521002002F064FA0A4A0E2195
:10DC0000002002F05FFA012002F01AFC0128FAD18C
:10DC100004F0BEF8342004F0D1F8044804F0FAF817
:10DC200004F0C4F8FFF7ECFE8233030800C00008DC
:10DC300008B5164B602803BF1A780132D2B2002211
:10DC40001A701A78042A1FD900211970104B1A680B
:10DC5000104B1B681A60104B4FF0FF32C3F8802046
:10DC6000C3F88420C3F8842043F8F01C02F095FB2D
:10DC7000BFF34F8F09490A4BCA6802F4E0621343AD
:10DC8000CB60BFF34F8FFEE708BD00BF300E001022
:10DC9000800500108405001000E100E000ED00E0C8
:10DCA0000400FA05064B1B681868064B984205D01D
:10DCB000054B98420CBF032002207047012070479B
:10DCC00084050010DAADDAADEFBEADDE024B034ADB
:10DCD0001B681A60704700BF84050010EFBEADDE00
:10DCE000064A0123D381064AD381064A0A23D381F7
:10DCF000054AD381054B0222DA817047701100106A
:10DD00003810001008110010A0100010D00F0010E3
:10DD10002DE9F041DFF8408005460F4616460C46D7
:10DD2000E31BB34202DB3046BDE8F081012D05D193
:10DD30002178404603F00CFC0134F1E7022D07D1B5
:10DD40002178404603F004FC207801F011FEF3E74F
:10DD50000A2DF1D1F8E700BF003801402DE9F84362
:10DD6000DFF82C9007468846164600244FF0FF3512
:10DD7000B44202DB2846BDE8F883012F05D108EB49
:10DD80000401484603F0A6FB01350134F0E700BF6B
:10DD90000038014008B50A4B1968024609B909491B
:10DDA00019601868084902448A4206D904F0DEFD69
:10DDB0000C2303604FF0FF3008BD1A6008BD00BFA0
:10DDC000340E00100010002000A0002070B5594C47
:10DDD000594B23608EB0002002F01CF9FF2002F0A6
:10DDE0001DF923681A68013212D1544A0C2101200E
:10DDF00002F068F9524A0E21012002F063F9052071
:10DE000002F01EFB0128FAD14DF6AD600EB070BDD8
:10DE10004C4C4D4A2360196891427BD15B68072BBB
:10DE200063D8EFF30883494A00210846136001F0E4
:10DE300091FD72B6464B83F30988022383F314885D
:10DE4000BFF36F8F62B62368424A9B68136098479E
:10DE5000414D286072B6002484F31488BFF36F8F9D
:10DE600062B6204602F0D6F8FF2002F0D7F82A6802
:10DE70003A4B9A4226D13A4A0B21012002F022F96C
:10DE8000384A0C21012002F01DF9374A0E210120E9
:10DE900002F018F9002002F0D3FA012804D0012082
:10DEA00002F0CEFA0128F5D1002002F0C9FA0128CB
:10DEB000FAD0012002F0C4FA0128F5D002F06DFA80
:10DEC0000020A3E701AD2949294E284601F0F4FBC3
:10DED0002846FFF795FCA04201D8264AD6E7295DDF
:10DEE000304603F035FB0134F2E71D4A0B210120D7
:10DEF00002F0E8F81B4A0C21012002F0E3F81E4A68
:10DF00000E21012002F0DEF8052002F099FA012826
:10DF1000FAD179E7194A0C21012002F0D3F8184A06
:10DF20000E21012002F0CEF8052002F089FA012826
:10DF3000FAD169E7E011001000300008E733030868
:10DF4000F9330308EC110010494E5341E41100105D
:10DF5000FC9F0020D8110010DC1100100100ADDE84
:10DF60000D340308193403083F34030856340308FA
:10DF700000380140803403088F340308A4340308B8
:10DF8000C1340308F8B51F4F1F4E204D38460021FD
:10DF900004F088F93046002104F090F90121284668
:10DFA00004F098F9BFF34F8FBFF36F8F012138460C
:10DFB00004F09CF93046012104F0A4F9012128461F
:10DFC00004F0ACF9BFF34F8FBFF36F8F104B4FF0DE
:10DFD000FF3200241C602146C3F870213846C3F884
:10DFE0007421C3F8742104F081F92146304604F00D
:10DFF00089F92146284604F091F9BFF34F8FBFF30A
:10E000006F8FF8BD57007E310178070037C8FE32A8
:10E0100010E000E04D4B4E4A4E49F0B51A604E4AB2
:10E020005A604E4A9A604E4ADA604E4A1A614E4A27
:10E030005A634E4AC3F8CC204D4AC3F8D0204D4A0B
:10E04000C3F820214C4AC3F8B0204C4B4FF47A72ED
:10E050001B68B3FBF2F3013B4B60494B0022F020FD
:10E06000072483F8230089B08A600C6083F82300BA
:10E070004449454803F04AF902F0E4FB012002F06C
:10E08000E2FB02F0B7F902F013FF03F00BF801F026
:10E090002BFB03F029F8FFF705FE022801D101F060
:10E0A000E9FD102501F010FEFF20002401F0BAFF69
:10E0B0000826302307270DEB05008DF813308DF867
:10E0C00010608DF811408DF812708DF814408DF8A5
:10E0D00015408DF8165002F01FFA01A88DF8044083
:10E0E0008DF8054002F00EFB284602F025FB1423B4
:10E0F0008DF809300DEB0600E0238DF80B308DF81C
:10E1000008408DF80A4002F0E0FC402306A88DF894
:10E1100019308DF818408DF81A708DF81E408DF862
:10E120001C408DF81D408DF81B6002F0A1FC80237F
:10E1300003A88DF80C308DF80D508DF80E408DF839
:10E140000F4002F07BFD09B0F0BD00BF08060010D3
:10E150004D28030810E000E0572803086128030851
:10E160006B2803087528030899E30208D5160308ED
:10E17000E5160308E5F80208F1EF0208C8050010EB
:10E1800000ED00E020A1070000380140064A6FF0D2
:10E19000030353F8041F42F8041FB3F5BE7FF8D100
:10E1A000024B034A9A607047FC05001000ED00E046
:10E1B0000006001082B0044B0190019A1A601A68A0
:10E1C000002AFCD102B07047440E00102DE9F04146
:10E1D000012086B001F0F8FDFF2001F01BFF0021B7
:10E1E0000846EF2340F23F1201F0D0FF002001F07B
:10E1F000EBFDFF2001F00EFF0021EF2340F23F1264
:10E20000084601F0C3FF1C2001F05DFE002001F074
:10E21000B7FD032001F0C2FD0021084601F0CCFD4E
:10E22000002002F00DF9012815D1002001F0F2FEC6
:10E23000FF2001F0F3FE03231A462A4902A801F049
:10E240003BFA02A8FFF7DCFAC0F1280002AA0D2170
:10E25000400801F037FF244E244F7488358805FBB1
:10E2600004F004F089FB0146386000B9FEE730464F
:10E2700000F00AFE012001F0A7FD00942B460220C9
:10E28000C4F1F006C5F5A07196FBF0F691FBF0F134
:10E290003246386801F09DFF386804F075FB0020B5
:10E2A00001F092FD1C2001F0B5FEA8462027344461
:10E2B0004FEAA812C2F1A00000EB42022346314609
:10E2C00001F064FF1420FFF775FF013FA844EFD170
:10E2D0004FF4FA60FFF76EFF02F05FF806B0BDE89A
:10E2E000F08100BFD9340308043A0308E811001094
:10E2F00008B51F491F48204C04F082FAFFF746FF7B
:10E30000FFF7EEFCFFF73EFEFFF784FE02F045F854
:10E31000FF2001F083FE002001F07CFE012002F0CE
:10E320008FF8012808BF2070FFF7BCFC022801D13C
:10E33000FFF74CFFFFF7CAFCFF2001F073FE2378C4
:10E34000012B01D100F008FD4DF6AD64FFF73EFD55
:10E35000A042FBD1FFF764FBBFF34F8F0749084B87
:10E36000CA6802F4E0621343CB60BFF34F8FFEE74D
:10E3700000A0002000040010400E001000ED00E09E
:10E380000400FA05034B1A6812B11A68013A1A60C0
:10E39000704700BF440E001008B5FFF7F3FF02F00E
:10E3A00049FE074A13680133092BC8BF00231360D5
:10E3B000044A136801331360BDE8084002F05CBFF3
:10E3C000380E00103C0E0010014B1870704700BF53
:10E3D0004818001073B5002001F01CFEFF2001F06A
:10E3E0001DFE264A0B210F2001F06CFE244A042159
:10E3F000052001F067FE234A0621052001F062FE98
:10E40000214A0821052001F05DFE204B1A68042AEC
:10E41000FCDD00261E6002F0A7F94FF4807501951F
:10E42000D0ED007AFDEEE77A0446CDED007A1423B4
:10E43000C8224021602003F0ACF90195D4ED017AA7
:10E44000FDEEE77A60210846CDED007A1423C8225C
:10E4500003F09FF90195D4ED027AFDEEE77A1423DB
:10E46000CDED007AC8228021602003F092F9304679
:10E4700001F0E6FF0128C8D102B070BD19350308CC
:10E48000253503082D350308353503083C0E0010EB
:10E4900073B5002001F0BEFDFF2001F0BFFD264A4C
:10E4A0000B210F2001F00EFE244A0421052001F06B
:10E4B00009FE234A0621052001F004FE214A082115
:10E4C000052001F0FFFD204B1A68042AFCDD002620
:10E4D0001E6002F0D3FB40F24C450195D0ED007A6E
:10E4E000FDEEE77A0446CDED007A1423C8224021E0
:10E4F000602003F04EF90195D4ED017AFDEEE77A44
:10E5000060210846CDED007A1423C82203F041F9BA
:10E510000195D4ED027AFDEEE77A1423CDED007A71
:10E52000C8228021602003F034F9304601F088FFD2
:10E530000128C8D102B070BD19350308253503087C
:10E540002D350308353503083C0E001073B5002047
:10E5500001F060FDFF2001F061FD264A0B210F2034
:10E5600001F0B0FD244A0421052001F0ABFD234A4F
:10E570000621052001F0A6FD214A0821052001F011
:10E58000A1FD204B1A68042AFCDD00261E6002F063
:10E59000E5FB4FF4FA750195D0ED007AFDEEE77AD0
:10E5A0000446CDED007A1423C8224021602003F0F8
:10E5B000F0F80195D4ED017AFDEEE77A6021084686
:10E5C000CDED007A1423C82203F0E3F80195D4EDD1
:10E5D000027AFDEEE77A1423CDED007AC82280217D
:10E5E000602003F0D6F8304601F02AFF0128C8D198
:10E5F00002B070BD19350308253503082D35030811
:10E60000353503083C0E001073B57B4DFF24002008
:10E6100001F016FF012840F0C680FF2001F0FAFC4F
:10E62000002001F0FBFC41220A211E2001F031FDF7
:10E63000012001F005FF012840F0BA80FF2001F021
:10E64000E9FC002001F0EAFC42220A21242001F02A
:10E6500020FD022001F0F4FE012840F0AE80FF20F2
:10E6600001F0D8FC002001F0D9FC08210846552211
:10E6700001F00FFD032001F0E3FE012840F0A2802D
:10E68000FF2001F0C7FC002001F0C8FC44220C214F
:10E69000082001F0FEFC042001F0D2FE012840F029
:10E6A0009680FF2001F0B6FC002001F0B7FC4C2260
:10E6B0000A21042001F0EDFC062001F0C1FE012832
:10E6C00040F08A80FF2001F0A5FC002001F0A6FCAC
:10E6D00052220A210C2001F0DCFC052001F0B0FEE2
:10E6E00001287ED1FF2001F095FC002001F096FC6E
:10E6F00043220A21082001F0CCFC0B2001F0A0FEEF
:10E70000012873D1FF2001F085FC002001F086FC78
:10E710003A4A0D21132001F0D5FC002002F082FCC2
:10E72000374902460646284600F0C6FF002001F0A1
:10E7300071FCFF2001F072FC324A0321042001F039
:10E74000C1FC1423C8222E2100966420019402F0FB
:10E75000D1FF012002F066FC2B49024606462846FE
:10E7600000F0AAFF002001F055FCFF2001F056FC4C
:10E77000264A0521042001F0A5FC1423C8224E21BD
:10E7800064200194009602F0B5FF002001F058FECD
:10E7900001287FF43CAF052001F052FE01287FF4F0
:10E7A00036AF02B070BD002001F034FCFF2038E726
:10E7B000002001F02FFCFF2044E7002001F02AFC9C
:10E7C000FF2050E7002001F025FCFF205CE700203F
:10E7D00001F020FCFF2068E7002001F01BFCFF2077
:10E7E00074E7002001F016FCFF207FE7002001F015
:10E7F00011FCFF208AE700BF601800103D350308B8
:10E800005035030841350308493503085C350308D2
:10E810002DE9F84F40F23F184FF6FF774FF0DF0930
:10E8200002F046FC834602F043FC08FB00F602F0CF
:10E830003FFCB6FBF7F608FB00FA02F039FCBAFB26
:10E84000F7FA09FB00F402F033FCB4FBF7F4B6B2BC
:10E850001FFA8AFA564509FB00F504F11004B5FBCE
:10E86000F7F505F1100588BF3346A4B2ADB284BFF9
:10E8700056469A46AC4288BF23465FFA8BF084BF67
:10E880002C461D4601F0C6FB2B465246214630461B
:10E8900001F06BFC002001F0D3FD0128C0D1BDE8E0
:10E8A000F88F2DE9F84F40F23F184FF6FF774FF001
:10E8B000DF0902F0FDFB834602F0FAFB08FB00F6DD
:10E8C00002F0F6FBB6FBF7F608FB00FA02F0F0FBED
:10E8D000BAFBF7FA09FB00F402F0EAFBB4FBF7F429
:10E8E000B6B21FFA8AFA564509FB00F504F1100486
:10E8F000B5FBF7F505F1100588BF3346A4B2ADB2FC
:10E9000084BF56469A46AC4288BF23465FFA8BF0D6
:10E9100084BF2C461D4601F07DFB2B465246214606
:10E92000304601F033FC002001F08AFD0128C0D1FF
:10E93000BDE8F88F07EE901ADFED166A164AB8EEBA
:10E94000E77A70B5C6EE877A144C154D0021FF2684
:10E950009FED147AC7EE276AD2ED007ABDEEE76A22
:10E9600077EEA67A16EE103AEB5CF4EEC77AF1EE8B
:10E9700010FA13FB00F393FBF6F30B5501F10101C1
:10E98000A8BF77EEC77AB1F5007FE7D1C2ED007A74
:10E9900070BD00BF00442C4750180010F01100104B
:10E9A0008435030800005C422DE9F04F642185B0F6
:10E9B0000020FFF7BFFF3C493C4CDFF8ECA0DFF83C
:10E9C00008B1012000F052FF3749022000F04EFF4D
:10E9D000374B3848002200261A60267000F070FF7E
:10E9E00000F0EAFE2378002B54D0002002F01AFB3E
:10E9F0000746012002F016FB41F28835C0F30718E4
:10EA00004FF00F09384605FB08F5B5FBF9F5A9B23B
:10EA1000FFF790FF5146207800F028FF0020267075
:10EA200001F0F8FAFF2001F0F9FA5A460521032017
:10EA300001F048FB204A0A21032001F043FB642235
:10EA4000FF231E491E48039317FB02F2B2FBF3F2A9
:10EA500000F032FE1A4A0721032001F033FB2A4658
:10EA60001849174800F028FE154A0C21032001F030
:10EA700029FB039B0193AA2214234E21782000979F
:10EA800002F038FE8DE800031423AA229E2178208C
:10EA900002F030FE002001F0D3FC0128A2D105B025
:10EAA000BDE8F04F00F0D0BEF01100104818001083
:10EAB00050180010C9E30208F534030802350308B2
:10EAC000601800100C350308EB3403082DE9F043FF
:10EAD000002085B001F09EFAFF2001F09FFA4A4A1B
:10EAE000DFF84491494F0B210F2001F0EBFA484A1F
:10EAF00009210A2001F0E6FA464A0521032001F027
:10EB0000E1FA0024444A0721032001F0DBFAA04681
:10EB100000F0BEFB8DF80F40002002F083FA642263
:10EB2000FF25064610FB02F24946B2FBF5F23846D5
:10EB300000F0C2FD3A460521092001F0C3FA142372
:10EB4000AA224E2178200195009602F0D3FD9DF86F
:10EB50000F30009301951423AA227321782002F02C
:10EB6000C9FDBCB10DF10F0000F032FA9DF80F5055
:10EB7000FF2D0FD100208DF80F8001F04BFA2846B1
:10EB800001F04CFA244A0721032001F09BFA00F01F
:10EB900001FA0024012001F053FC0128054626D18A
:10EBA0002CBB20468DF80F4001F034FAFF2001F015
:10EBB00035FA1A4A0721032001F084FA3046184E2C
:10EBC00000F0E8FBFF21204600F0EAFB3168204618
:10EBD00000F0F2FB8021284600F0E2FB7168284635
:10EBE00000F0EAFB4C210F4800F064F92C460020AD
:10EBF00001F026FC01288FD100F0CCF900F092FB47
:10EC000005B0BDE8F08300BF193503086018001097
:10EC1000BB350308D1350308D8350308E8350308A8
:10EC2000880500105A360308E03503082DE9F04145
:10EC3000002001F0EFF9FF2001F0F0F9052108466E
:10EC40003D4A01F03FFA3D4A0821052001F03AFA19
:10EC50000024E1B22046013402F0A4FAB4F5002FFA
:10EC6000F7D10025364F2E462C46204602F07CFA7E
:10EC7000EBB2984218BF4FF4002404F1010418BF0E
:10EC80000126BC4205F10105EFD9002E4AD11C2016
:10EC900001F0C0F92B4A0521102001F013FA2A4A8D
:10ECA000002317469B540133102BFBD10025DFF8BE
:10ECB0009880264E2C4610224146204602F0B5FA96
:10ECC00010223146204602F0A1FA0023F95CF25CE2
:10ECD000914218BF102303F101031CBF4FF400241D
:10ECE00001250F2BF2D91034B4F5002FE3D3F5B979
:10ECF0001C2001F08FF9134A0821112001F0E2F9DC
:10ED0000002001F087F9FF2001F088F9104A0B215B
:10ED10000F2001F0D7F9002001F092FB0128FAD171
:10ED2000BDE8F081E02001F075F90A4AB3E7E02080
:10ED300001F070F9074ADFE765350308703503080D
:10ED4000FFFF07007C350308381600102816001056
:10ED5000193503087F35030808B5424CFF2200230C
:10ED60001146204602F070FDFFF7B0FE002001F0D2
:10ED700067FB0128FAD0FF22002311463A4802F02F
:10ED800063FDFFF741FC002001F05AFB0128FAD097
:10ED9000FF2200231146354802F056FDFFF71AFB0B
:10EDA000002001F04DFB0128FAD0FF22002311467C
:10EDB0002F4802F049FDFFF76BFB002001F040FBFC
:10EDC0000128FAD0FF22002311462A4802F03CFD18
:10EDD000FFF7BCFB002001F033FB0128FAD0FF2233
:10EDE00000231146244802F02FFDFFF711FD0020FB
:10EDF00001F026FB0128FAD0FF22002311461F480C
:10EE000002F022FDFFF74DFD002001F019FB012863
:10EE1000FAD0FF2200231146194802F015FDFFF732
:10EE2000C3FD002001F00CFB0128FAD0FF220023D3
:10EE30001146204602F008FDFFF748FE002001F0D1
:10EE4000FFFA0128FAD0FF22002311460D4802F0F4
:10EE5000FBFCFFF7EBFE002001F0F2FA0128FAD0EC
:10EE60007CE700BFF0350308FC35030801360308D2
:10EE70000B36030819360308263603083436030810
:10EE8000463603084C36030830B58368828802335F
:10EE900072B1084603E013F8024C00F8014B13F876
:10EEA000015C441AA542F6DC013A02330146EFE761
:10EEB000104630BD2DE9F041054684B08846042057
:10EEC000012103F02BFA0021042003F027FA01218D
:10EED000042003F0FFF92A482A4E0746002103F0D8
:10EEE00034FB0121384603F03CFB01A803F022FB70
:10EEF00000244FF6FF7241F61F4301A938460292E3
:10EF0000ADF80C40019303F0CFFA04A81E4B40F873
:10EF1000103D03F067F81D4B1D4AC3F80080348094
:10EF2000234615606FF0404407E001339BB21A1985
:10EF300005EB8202338052888AB905EB830215F80B
:10EF40002310507800F044FA338805EB830251888F
:10EF50000029EAD0384603F0F6FA3388E5E70121C4
:10EF6000074803F0FEFA01221146054803F006FBAC
:10EF70000121034803F0E9FA002004B0BDE8F08164
:10EF800000080040881800101E04000184180010BA
:10EF90008018001010B50B4C0021204603F0D5FA64
:10EFA0002046012103F0DDFA0121042003F0B6F927
:10EFB0000021042003F0B2F9034A044B0020108022
:10EFC000186010BD0008004088180010801800105C
:10EFD000054B064A1B881268C3EB0323B3FBF2F30D
:10EFE00003700020704700BF8818001084180010BC
:10EFF0002DE9F04100211D481D4C1E4E03F0A5FADD
:10F0000001211A4803F0ADFA2388326893422BD2CB
:10F01000194DDFF858802A686FF040470AE0013345
:10F020009BB2D91902EB810123804988B1B93168BB
:10F030008B4213D202EB830012F82310407800F0C9
:10F04000C7F92A68238802EB830149880029E6D0A2
:10F05000404603F078FA23882A68E0E70121034854
:10F06000BDE8F04103F071BABDE8F081000800404E
:10F070008818001084180010801800102DE9F04F37
:10F0800001280CBF784B794B794C1B68794F7A4D2E
:10F090002DED028B9FED798A85B003F1FF3B0026B1
:10F0A00097ED036AB5EE406AF1EE10FA00F0D180F8
:10F0B000797F002900F0CD80D7F800C0704ADCF8D5
:10F0C00018A0D7ED027A97F81090D7ED066AD7F816
:10F0D00014E0019702F58068F7EE004ABDEEE77A8A
:10F0E00077EE867A8DED037A039B1AF80330F4EEFF
:10F0F000C87A13FB09F3F1EE10FA01F1FF304FEA81
:10F100001323A8BF77EEC87A042800F2AB80DFE8AB
:10F1100000F080684D42030007EE103ADCED055A1E
:10F12000B8EEC77A27EE267A76EEE56ABCEEC77AA5
:10F13000F5EEC06AF1EE10FA8DED007A40F28280B1
:10F140009DF8003016B1108803449BB222F8023BB0
:10F150009045C3D1019FC7ED027A7977C7F814E0D3
:10F16000C7ED066A4749584631F8022F2B7803FB52
:10F1700002F31B0AFF2B28BFFF238C4200F8013F3C
:10F18000F2D10136042E07F1200789D105B0BDEC7C
:10F19000028BBDE8F08FDCF800000EF1010E864511
:10F1A0009BB2CFD30321F7EE006ACBE707EE103A0C
:10F1B000B8EEC77A9CED035ADCED045A27EE267AA6
:10F1C00076EEC56ABCEEC77AF4EEE56A8DED007A9C
:10F1D000F1EE10FA9DF80030B4D802214FF0000E85
:10F1E000B0E707EE103ADCED045ADCF80400B8EEA4
:10F1F000C77A0EF1010E27EE257A8645BCEEC77A56
:10F200008DED007A9CD3F0EE656A9DF80030052103
:10F2100098E707EE103AB8EEC77ADCED025A27EE0F
:10F22000267A76EEA56ABCEEC77AF4EEE46A8DED36
:10F23000007AF1EE10FA9DF8003083DB04214FF0E4
:10F24000000E7FE700218E469DF80030DFED0E6A4C
:10F2500078E7002E86D14FF480623146084803F0EB
:10F260004BFE7FE700236DE7141900100C19001006
:10F27000FE0300208C1800101019001000005C42E2
:10F2800000000020FEFFFF1F00000000FFF7F6BE99
:10F29000F8B500F0D9FA1D4C1D481E4E1E4F00F067
:10F2A0000FFB1E4B1E49266000220024FF259A609A
:10F2B000DA609A62DA629A64DA649A66DA661C74D0
:10F2C0005C7783F8304083F83D4083F8504083F802
:10F2D0005D4083F8704083F87D401D7183F82450B1
:10F2E00083F8445083F864501960196219641966F0
:10F2F00006F5007601203E60FFF7C0FE0220FFF712
:10F30000BDFE00F059FA2046F8BD00BF14190010E8
:10F310008DF20208000400200C1900108C18001057
:10F320000C39030838B500F08FFA002000F0C8FA55
:10F33000164B1749196000220024FF259A60DA60F5
:10F340009A62DA629A64DA649A66DA661C745C77A6
:10F3500083F8304083F83D4083F8504083F85D40A7
:10F3600083F8704083F87D401D7183F8245083F842
:10F37000445083F864501962196419660120FFF73C
:10F380007DFE0220FFF77AFE204638BD8C18001063
:10F390000C390308014B1870002070471019001039
:10F3A000032801D902207047024B03EB40130020D1
:10F3B000197470478C180010032801D90220704777
:10F3C0004301024A0020D150704700BF8C18001042
:10F3D000032801D902207047FF2924D05E2901D9D2
:10F3E00003207047144B9FED157A53F82130DFED61
:10F3F000146A07EE903AF8EE677A124B67EE877A56
:10F4000003EB401387EEA67A002010B400220124FB
:10F4100018775C77197158619A609A6183ED037A65
:10F420005DF8044B7047074B03EB401300220020AC
:10F43000DA605877704700BF8C370308EE77A33A3D
:10F440000000C8428C180010032801D90220704720
:10F45000044B03EB4013002200209A60DA605877D7
:10F46000704700BF8C18001007B5019138B10368D0
:10F47000197003680133036003B05DF804FB0122D7
:10F4800001A91046FEF744FCF6E72DE9F843141EE7
:10F4900080460D4627DD0A46501B12F8011B002945
:10F4A000FAD18442CCBF241A0C4613F0020F0CBFD1
:10F4B00020273027DB071ED42646002E15DC24EA41
:10F4C000E473E41A5E1B06EB050915F8011BA1B9EC
:10F4D0002546002D15DC002CACBF09EB040009F11A
:10F4E0000000BDE8F8832027E4E739464046FFF7EF
:10F4F000BBFF013EE1E70023E4E74046FFF7B4FF2E
:10F50000E1E739464046FFF7AFFF013DE1E72DE96E
:10F51000F04385B081461D460C9FDDF834800C46D3
:10F5200061B930238DF804308DF8051043463A4612
:10F5300001A9FFF7AAFF05B0BDE8F0832BB10A2AA5
:10F540001CD100291ADA4C42012504AE002306F82A
:10F55000013D0E9B3A3B9CB945B1EFB118F0020F4B
:10F560001AD02D214846FFF77FFF013F43463A4618
:10F5700031464846FFF789FF2844DCE70025E4E7E9
:10F58000B4FBF2F102FB1144092CC8BFE41830347B
:10F5900006F8014D0C46DEE72D2306F8013C002558
:10F5A000013EE3E72DE9F0470E68DFF8089186B0E9
:10F5B00007460C1D00254FF00A08337823B1252B90
:10F5C0006DD17378711C2BB9002F6ED1284606B00F
:10F5D000BDE8F087252B61D02D2B06BFB11C012380
:10F5E00000230A78302A01F1010017D000220878A0
:10F5F000A0F1300E5FFA8EFCBCF1090F0E4601F14E
:10F6000001010FD9732810D1216804F1040A0029DF
:10F6100008BF49463846FFF738FF14E043F00203BD
:10F620000146DEE708FB02E2E1E764280FD1612131
:10F630008DE80C0004F1040A029101230A222168DA
:10F640003846FFF764FF054454460136B5E778288D
:10F6500008D104F1040A61218DE80C000291002315
:10F660001022ECE7582803D104F1040A4121F3E702
:10F67000752807D161218DE80C0004F1040A02917C
:10F680000023DBE76328E0D121688DF81410002106
:10F690008DF8151004F1040A05A9BBE70E46317870
:10F6A0003846FFF7E1FE0135CFE73B6800221A70CC
:10F6B0008CE700BFB33903080EB403B502AB03A94E
:10F6C00043F8040D1846FFF76DFF02B05DF804EB38
:10F6D00003B0704780B483B000AF786000BF0C37D0
:10F6E000BD465DF8047B704780B58AB000AF304BF3
:10F6F000304A1A600121022002F0D4FD01214FF0AE
:10F70000005002F0E7FD01214FF4003002F0CAFD85
:10F7100010233B62032387F82430002387F8273027
:10F7200007F1200319464FF0904002F091FB0121B0
:10F73000012002F0CFFD07F11403184602F0FAFE93
:10F7400040F25F63BB610023BB820023BB830023C5
:10F75000FB8207F1140319464FF0804002F0A4FE2B
:10F7600020214FF0804002F00BFF01214FF080403C
:10F7700002F0EBFE02F083F924237B600023BB60E0
:10F7800000233B613B1D1946002002F085F93A2316
:10F790003B7003237B700023BB700123FB703B464F
:10F7A000184602F01FFC00BF2837BD4680BD00BFD1
:10F7B000480E0010D5F6020880B500AF1E4802F0D2
:10F7C000A1F91E4B1E4A1A601E4A1C4B5A601B4B65
:10F7D0004FF480629A81194B10229A60174B0022D5
:10F7E0009A61164B0022DA61144B00221A61134B06
:10F7F00080225A61114B20221A62104B4FF4805222
:10F800005A620E4B00229A620C490B4802F0F4F93E
:10F8100001220621084802F018FA0121064802F0E8
:10F8200009FA0121002002F04DF90121002002F027
:10F8300059F900BF80BD00BF30040240500E0010D7
:10F84000107400400004002080B500AF00210020AB
:10F8500002F038F90021044802F0ECF90021002000
:10F8600002F040F900BF80BD3004024080B485B092
:10F8700000AF786039607B68012B02D10E4BBB6012
:10F8800001E00E4BBB600023FB600BE0FB683A68B5
:10F8900013441A78BB681A70BB680133BB60FB68FD
:10F8A0000133FB60FB68B3F5007FEFDB00BF14376B
:10F8B000BD465DF8047B7047000400200006002070
:10F8C00080B483B000AF78607B68002B02D0044A1C
:10F8D0007B68136000BF0C37BD465DF8047B704742
:10F8E000480E001080B500AF154802F0B7F9034686
:10F8F000002B0BD0124802F0BFF90122042111485D
:10F9000002F0A3F9104B02221A6010E00F4802F037
:10F91000A5F90346002B0AD00C4802F0ADF90122EC
:10F920000221084802F091F9074B01221A60084BA6
:10F930001B68054A12681046984700BF80BD00BF8B
:10F9400000020010300402404C0E001000040010B1
:10F95000480E001027289CBF034B18600E299CBF3F
:10F96000024B1960704700BF7C0E0010800E001023
:10F970000A2870B506460F4D0F4C01D00D2807D14F
:10F9800000232B60236801330E2BD8BF23600FE0C8
:10F99000FF2000F03FFB002000F040FBF2B22168A6
:10F9A000286800F076FB2B680133272BE8DC2B60FE
:10F9B000012070BD7C0E0010800E0010044A1368F8
:10F9C0001B0C1B0443F4AA4343F055031360704718
:10F9D00000080048024A13681B0C1B0413607047A0
:10F9E00000080048044A938A03F47F439382938A71
:10F9F0009BB21843908270470008004810B5134A24
:10FA0000138A9B06FCD5124904240C85FFF7D6FF08
:10FA1000FFF7E8FF4FF400730B8500BF00BF00BF86
:10FA200000BF8B618C61FFF7D5FF102340220B854F
:10FA30000C850A8500BF00BF00BF00BF0548008AD3
:10FA40008A61C0B28B618C6110BD00BF00040048A8
:10FA50000014004800080048F8B5144A138A9B06B1
:10FA6000FCD5134C04252585FFF7A8FF4FF400763D
:10FA7000FFF7B8FF268500BF00BF00BF00BF00BF73
:10FA80001027A6610846A56127852585FFF7AAFFEF
:10FA9000268500BF00BF00BF00BF00BFA661A761F1
:10FAA000A561BDE8F840FFF795BF00BF000400481E
:10FAB00000140048074B042240211A85198500BF15
:10FAC00000BF00BF00BF0448008A9961C0B29A61BC
:10FAD000704700BF001400480008004808B54020E7
:10FAE000FFF78CFF60F07F01C9B24020FFF7B4FF41
:10FAF0004020BDE80840FFF781BF08B54020FFF770
:10FB00007DFFBDE8084000F07F014020FFF7A4BF63
:10FB1000F8B50D460746C1B2912016461C46FFF7C0
:10FB20009BFFC7F307219220FFF796FFF1B29520C4
:10FB3000FFF792FFC6F307219620FFF78DFFE9B28A
:10FB40009320FFF789FFC5F307219420FFF784FF77
:10FB5000E1B29720FFF780FFC4F307219820BDE8AA
:10FB6000F840FFF779BF70B50C460546C1B2992041
:10FB70001646FFF771FFC5F307219A20FFF76CFFC8
:10FB8000E1B29B20FFF768FFC4F307219C20FFF739
:10FB900063FFF1B29D20BDE87040FFF75DBFF8B58F
:10FBA0000E460746C1B2302015461C46FFF754FFEB
:10FBB000C7F307213120FFF74FFFF1B23420FFF7E1
:10FBC0004BFFC6F307213520FFF746FFE9B232208D
:10FBD000FFF742FFC5F307213320FFF73DFFE1B2F6
:10FBE0003620FFF739FFC4F307213720BDE8F8407E
:10FBF000FFF732BF1D4A2DE9F0410746138A9806E8
:10FC0000FCD51B4C04252585FFF7D8FE0220FFF705
:10FC1000E9FE4FF40073238500BF00BF00BF00BFA3
:10FC200000BF1022DFF84480A3613E46A561258510
:10FC300022851D46F31B994208DC0D4B10229A6168
:10FC400004229A61BDE8F041FFF7C4BEB8F8103055
:10FC50009B06FBD516F8010BFFF7C4FE258500BFF8
:10FC600000BF00BF00BF00BFA561E3E7000400487C
:10FC7000001400481FB540F6B8330193019B5B03A5
:10FC80000193019C631E0193002CFAD101214FF4D2
:10FC9000001002F007FB04A98DF80E4003234FF477
:10FCA00000448DF80D3041F8084D012305488DF8CA
:10FCB0000C3002F0CDF82146024802F022F904B0DF
:10FCC00010BD00BF00100048F7B501214FF49800A7
:10FCD00002F0E8FA02AD03238DF80530302345F831
:10FCE000083D002429461F4F1F488DF807408DF816
:10FCF00006408DF8044002F0ABF8FF2329461B486C
:10FD000000938DF8044002F0A3F838464FF41571C3
:10FD100002F0F7F801264FF4157329463846009390
:10FD20008DF806408DF8046002F092F8FFF746FE69
:10FD3000EF232246204640F23F11FFF730FF892192
:10FD40002020FFF789FE30468021FFF785FE2146FF
:10FD50001020FFF781FE21464020FFF77DFE03B013
:10FD6000F0BD00BF0014004800040048000800482F
:10FD70000022EF2340F23F111046FFF710BF0000B2
:10FD8000054B197800F0C00001F03F0101435220FB
:10FD90001970FFF761BE00BF840E0010054B197883
:10FDA00000F0070021F03F01014352201970FFF7D6
:10FDB00053BE00BF840E001000F00F0000EB0111D5
:10FDC000C9B25320FFF748BE00F001014120FFF700
:10FDD00043BE70B50C460546C1B254201646FFF727
:10FDE0003BFEC5F301215520FFF736FEE1B2562058
:10FDF000FFF732FEC4F3002101EBC611C9B2572050
:10FE0000BDE87040FFF728BE70B50C460546C1B28C
:10FE100058201646FFF720FEC5F301215920FFF7B1
:10FE20001BFEE1B25A20FFF717FEC4F3002101EBDD
:10FE3000C611C9B25B20BDE87040FFF70DBE38B5F2
:10FE40000C460546C1B25C20FFF706FEC5F3012152
:10FE50005D20FFF701FEE1B25E20FFF7FDFDC4F378
:10FE600000215F20BDE83840FFF7F6BD38B50D46EC
:10FE700000F01F0160201446FFF7EEFD05F03F0182
:10FE80006120FFF7E9FD04F01F016220BDE8384062
:10FE9000FFF7E2BD38B50D4600F01F0163201446A0
:10FEA000FFF7DAFD05F03F016420FFF7D5FD04F010
:10FEB0001F016520BDE83840FFF7CEBD00F01F01EF
:10FEC0006620FFF7C9BD01466720FFF7C5BD38B5FD
:10FED00003EB021305460C465120D9B2FFF7BCFDD7
:10FEE0006101803901EB8511502001F0E001FFF73D
:10FEF000B3FD402000B938BDFFF7DCFD00F0400045
:10FF0000F8E7000002EB01112DE9F041C9B2054606
:10FF100051201C46FFF7A0FD6901403901F0E001C6
:10FF20005020FFF799FD374D2B8A9906FCD53649AD
:10FF30004FF0904848F202170426A8F828700E8562
:10FF4000FFF73CFD0220FFF74DFD4FF400700885E0
:10FF500000BF00BF00BF00BF00BF886100BF8E614F
:10FF600000BF00BFFFF736FD0E8500BF10230B85D5
:10FF700000BFA86100BF4FF480632B8500BF4FF422
:10FF800080732B8500BF069D204EDFF884E0DFF8EC
:10FF900074C025444346AC4212D11B4B10229A61D7
:10FFA00000BF04229A6100BFA3F580534FF4806222
:10FFB0009A6100BF4FF480729A6100BFBDE8F08182
:10FFC000A2B2B4F5803FB28209D3220C1F85B3F8E8
:10FFD00014803EF8122042EA080292B29A82BCF8DB
:10FFE00010209206FBD5013400BF00BF00BF08857A
:10FFF00000BF00BF00BF00BF00BF886100BF00BFDF
:020000040803EF
:10000000C9E700BF0004004800140048000C004885
:10001000C839030801464220FFF71EBD01464320B0
:10002000FFF71ABD10B504468E20FFF7E7FC40F03D
:100030000101C9B28E20FFF70FFDFFF73BFD02065D
:10004000FBD42046FFF7EAFF8E20FFF7D7FC60F0D5
:100050007F01C9B28E20FFF7FFFCFFF72BFD0306DF
:10006000FBD410BD38B50C460546C1B24620FFF79B
:10007000F3FCC5F307214720FFF7EEFCE1B248206F
:10008000FFF7EAFCC4F307214920BDE83840FFF739
:10009000E3BC70B50C4605461646FFF71FFD0E2C57
:1000A00028BF0E24272D28BF27252101E80001396C
:1000B000FFF7D8FF31460220FFF7CEFCBDE87040C5
:1000C000FFF71BBD70B50C4606461546FFF706FD4B
:1000D0000E2C28BF0E24272E28BF272621010139E8
:1000E000F000FFF7BFFF2B46591B13F8012B002A26
:1000F000FAD12846FFF77EFDBDE87040FFF7FDBC52
:10010000F8B50C46054617461E46FFF7E7FC0E2CD1
:1001100028BF0E24272D28BF27252101E8000139FB
:10012000FFF7A0FF39463046FFF764FDBDE8F84011
:10013000FFF7E3BC10B51446FFF794FF21460220F9
:10014000BDE81040FFF788BCF8B5904214461E4643
:1001500081BF02460B4620463146FFF7D9FC80217D
:100160009020BDE8F840FFF777BCF8B59042144600
:100170001E4681BF02460B4620463146FFF7C8FCAB
:1001800090210846BDE8F840FFF766BCF8B59042FC
:1001900014461E4681BF02460B4620463146FFF7F5
:1001A000B7FCB0219020BDE8F840FFF755BC08B57A
:1001B000FFF7D9FC40219020BDE80840FFF74CBC78
:1001C00008B5FFF7D0FC60219020BDE80840FFF79C
:1001D00043BC2DE9F041069E1D460C46531E691E88
:1001E00017463344804621442046FFF7D8FC394661
:1001F0002046FFF737FF06FB05F14046FFF7FAFC04
:10020000BDE8F041FFF7B4BD2DE9F843089F1E4655
:100210000D46531E711E90463B4429440446284611
:10022000FFF7BDFC41462846FFF71CFF7E432E4FDB
:100230003B8A9B06FCD52D494FF0904948F20218A5
:100240000425A9F828800D85FFF7B8FB0220FFF7E9
:10025000C9FB4FF40070088500BF00BF00BF00BF9E
:1002600088618D61FFF7B6FB10230D850B854FF478
:100270008063B8613B854FF480733B85DFF868E0AD
:100280001B4B1C4F26444A46B44210D1174B102238
:100290009A6104229A61A3F580534FF480629A61B7
:1002A0004FF480729A61BDE8F843FFF761BDA5B2D3
:1002B000B4F5803F9D820AD3250CA2F82880B2F8BD
:1002C00014C037F8155045EA0C05ADB29582BEF85A
:1002D0001050AD06FBD50134088500BF00BF00BF3C
:1002E00000BF8861D0E700BF000400480014004848
:1002F000000C0048C83903082DE9F8435FFA81F87B
:10030000074689463A2041461D461446FEB2FFF78D
:10031000A3FBC9F300213B20FFF79EFB31463820A9
:10032000FFF79AFB013DC7F301213920FFF794FB4A
:1003300008EB0501C9B23E20FFF78EFB05EB090172
:10034000013CC1F300213F20FFF786FB3119C9B200
:100350003C20FFF781FBE119C1F301213D20BDE8FD
:10036000F843FFF779BB10B5C0F3002104462720FE
:10037000FFF772FBE1B22620BDE81040FFF76CBB2F
:1003800010B5C0F3012104462520FFF765FBE1B25B
:100390002420BDE81040FFF75FBB08B50120FFF740
:1003A00013FDFF20FFF736FE00210846EF2340F241
:1003B0003F12FFF7EBFE0020FFF7D5FF0020FFF70D
:1003C000DFFF0020FFF700FDFF20FFF723FE0021E5
:1003D000EF23084640F23F12FFF7D8FE0020FFF758
:1003E000C2FF0020FFF7CCFF0020BDE80840FFF768
:1003F000D5BC000037B501214FF4D01001F052FFF9
:10040000684601F06EFD03238DF8053000244FF49B
:100410007B4301256946094800938DF804408DF817
:10042000075001F015FD69464FF0904000958DF89A
:10043000074001F00DFD03B030BD00BF00080048CB
:10044000062808B509D80B4B33F810100A4801F0FC
:1004500052FDB0FA80F0400908BD0B284FF00101B1
:10046000F4D14FF0904001F046FD003018BF01205C
:1004700008BD00BFBA3903080008004870B5144C25
:10048000144E4FF48053054623600221304601F09C
:10049000EFFF88B129460F480E4D01F0E5FF4FF4FC
:1004A000805323600121284601F0E2FF50B1094842
:1004B000BDE8704001F0DABF23685A1E2260002BAD
:1004C000E3D1FEE723685A1E2260002BEAD1FEE743
:1004D0009005001000300140012A70B50D46064617
:1004E00088BF41F040050B480821144601F00BFD80
:1004F0002846FFF7C3FF2CB908210648BDE8704025
:1005000001F0FFBC16F8010B013CFFF7B7FFA4B2E6
:10051000F1E700BF001000482DE9F04F8BB0002438
:10052000054601214FF480508DF80A408DF80B40AC
:1005300001F0C4FE01214FF4003001F0B3FE0121AF
:100540004FF4001001F0AEFE01214FF4001001F055
:10055000A9FE01214FF4001001F0A4FE052211466E
:100560004FF090400DF1280801F0CFFC0522062144
:100570004FF0904001F0C9FC2027052207214FF0E1
:10058000904001F0C2FC48F81C7D4FF0030A4FF088
:10059000020B41464FF09040474E8DF810B08DF859
:1005A00012408DF813408DF811A001F051FC80230A
:1005B00041464FF09040039301F04AFC40234146EE
:1005C0004FF09040039301F043FC304601F0B2FE3F
:1005D0004FF4E063ADF818304FF40073ADF81E30FF
:1005E0001023ADF820300723ADF8243005A94FF4CF
:1005F00082733046ADF81630DFF8C090ADF8144085
:10060000ADF81A40ADF81C40ADF8224001F0C4FE30
:1006100030464FF4805101F01CFF3046012101F0BB
:100620000CFF0126082341464846039301938DF8A9
:1006300010608DF812408DF811A001F009FC019BAB
:100640004846194601F05DFC4146484603968DF840
:1006500010408DF812408DF811A08DF8134001F074
:10066000F7FB41464846CDF80CB001F0F1FB6A7843
:100670002B7813439DF80A201343AA781343EA7892
:1006800013438DF80A306A792B7913439DF80B20B8
:100690001343AA79394613430DF10A0032468DF807
:1006A0000B30FFF719FF324623210DF10B00FFF746
:1006B00013FF0BB0BDE8F08F003001400010004880
:1006C000012A70B58CBF41F0C00541F08005064697
:1006D00008210B48144601F016FC2846FFF7CEFE11
:1006E0002CB908210648BDE8704001F00ABC002082
:1006F000FFF7C4FE013C06F8010BA4B2F0E700BF0F
:100700000010004813B5044601220DF10700212115
:10071000FFF7D6FF6278237813439DF8072022F075
:100720003F021343212101220DF107008DF807300C
:10073000FFF7D2FE02B010BD13B5012204462421FA
:100740000DF10700FFF7BCFF9DF8073023F0100301
:100750001C43012224210DF107008DF80740FFF70B
:10076000BBFE02B010BD0000F0B587B006A80023A4
:1007700004AC00F8113D012223210293ADF80C30A6
:100780000493A380FFF79CFF0622282102A8FFF70D
:1007900097FF9DF807309DF809609DF808709DF857
:1007A0000B009DF80A509DF80D209DF80C1013F0D9
:1007B000400F2BD107EB062605EB0020ADF81060AB
:1007C000ADF8120001EB022203F03003102BADF85C
:1007D000142026D0202B27D09FED157ADFED157A37
:1007E000002B18BFF0EE477A134A002334F9131098
:1007F00007EE101AB8EEC77A0133C7EE276A032B4B
:10080000E2EC016AF2D10C4807B0F0BD06EB072616
:1008100000EB0520ADF81060ADF8120002EB0122EC
:10082000D2E7DFED067ADFE7DFED057ADCE700BF30
:1008300000000000EC91E442880E001054926442E3
:100840005C8F6441704770472DE9F04301218DB002
:100850004FF4001001F03EFD01214FF4802001F023
:1008600021FD01214FF4001001F01CFD3D4F01213D
:100870004FF4001001F016FD01214FF4001001F0BB
:1008800011FD3846042206210CAD01F03EFB042286
:100890003846072101F039FB402345F82C3D002460
:1008A00002264FF00308294638468DF808608DF877
:1008B0000B608DF80A408DF8098001F0C9FA802399
:1008C0002946384607F5406701934FF0040901F0C7
:1008D000BFFA29463846CDF804908DF808408DF8C7
:1008E0000A408DF80B408DF8098001F0B1FA3146CD
:1008F000484601F0C3FD4FF00109082303A8039601
:100900008DF81130184E8DF810408DF8129001F0CE
:10091000BDF90CA9154B41F81C3D304608940694CE
:10092000079409940A940B9401F002FB494630465F
:1009300001F02EFB10232946384601938DF808401C
:100940008DF80A408DF809808DF80B4001F080FA8F
:10095000202329463846019301F07AFA0DB0BDE80C
:10096000F08300BF000400480054004025209000A0
:100970002DE9F3413C4CDFF8F4804FF42043054669
:100980000F46164623604FF40041404601F022FB1B
:1009900000284AD14FF40053ADB2009301224FF02A
:1009A000807329463148DFF8C48001F0FAFA4FF429
:1009B000204323600221404601F00CFB00283AD07E
:1009C00039462A48294F01F000FB4FF420432360A9
:1009D0008021384601F0FEFA002832D0002300932F
:1009E00029464FF0007301222048204D01F0D9FA2A
:1009F0004FF4204323600221284601F0EBFA30B384
:100A000031781A48194D01F0E0FA4FF42043236081
:100A10002021284601F0DEFAF8B12021134801F028
:100A2000DFFA002002B0BDE8F08123685A1E226080
:100A3000002BA8D1FEE723685A1E2260002BB9D1F3
:100A4000FEE723685A1E2260002BC1D1FEE723680F
:100A50005A1E2260002BCED1FEE723685A1E226068
:100A6000002BD5D1FEE700BF9405001000540040D4
:100A700013B5044600238DF806308DF80730FFF7D4
:100A8000E3FE6278237813439DF806201343A2788F
:100A900013438DF806306279237913439DF80720BC
:100AA0001343A2791343E2782021134332200DF13E
:100AB00006028DF80730FFF75BFF0DF107022321D7
:100AC0003220FFF755FF02B010BD37B505460024B0
:100AD0008DF805408DF806408DF80740FFF7B4FE0D
:100AE0006A782B7813439DF8052013438DF8053061
:100AF0009DF80620EB7813438DF806309DF807200B
:100B0000AB78214613433C200DF105028DF80730E8
:100B1000FFF72EFF0DF1060201213C20FFF728FF11
:100B20000DF1070202213C20FFF722FF03B030BD88
:100B30002DE9F7433F4CDFF800911D464FF4204369
:100B400006460F46904623604FF40041484601F0A8
:100B500041FA0346002841D14FF40052B6B2009248
:100B6000314601223448DFF8D09001F01AFA4FF4F0
:100B7000204323600221484601F02CFA002833D09C
:100B8000012D88BF47F0800739462B482A4F01F0D6
:100B90001CFA4FF4204323604021384601F01AFA32
:100BA00040B34FF41053009331464FF00073EAB254
:100BB0002148214F01F0F5F94FF42046266025BB6E
:100BC0001D4D2021284601F005FA60B320211A4866
:100BD00001F006FA002003B0BDE8F08323685A1E36
:100BE0002260002BB0D1FEE723685A1E2260002B42
:100BF000C0D1FEE723685A1E2260002BCCD1FEE74D
:100C000023685A1E226003B9FEE70421384601F02A
:100C1000E1F90028F4D0384601F0D9F9013D08F88F
:100C2000010BADB2CAE723685A1E2260002BC8D15F
:100C3000FEE700BF940500100054004013B50446C1
:100C40000DF10702012321213220FFF771FF6278A5
:100C5000237813439DF8072002F00C021343A27877
:100C60001343E2782121134332200DF107028DF85E
:100C70000730FFF77DFE02B010BD000030B587B031
:100C8000022301AA2321322004ACFFF751FF2821BF
:100C9000062322463220FFF74BFF9DF805309DF8D2
:100CA000042013F040030CBF1021402112F0400239
:100CB00002AD3AD0002B3AD00023E21892F901009D
:100CC000E25C02EB002292FBF1F2EA520233062BC5
:100CD000F3D1022301AA23213220FFF729FF9DF837
:100CE00005305B0632D49DF8043003F03003202B2E
:100CF0002CD0302B27D0102BB7EE007AF6EE007AEE
:100D000018BFF0EE477A134A002335F9131007EEA7
:100D1000101AB8EEC77A0133C7EE276A032BE2EC4C
:100D2000016AF2D10B4807B030BD1346C5E7E2189F
:100D3000E056527802EB002292FBF1F2EA520233C3
:100D4000062BF4D1C5E7DFED047ADCE7F5EE007A97
:100D5000D9E700BF940E00109FCDAA3D37B502AA77
:100D6000002302F8013D012319463C20FFF7E0FE75
:100D70000123484A03213C20FFF7DAFE0123464ABB
:100D800004213C20FFF7D4FE0123444A07213C20E4
:100D9000FFF7CEFE0123424A08213C20FFF7C8FEA0
:100DA0000123404A05213C20FFF7C2FE01233E4AB1
:100DB00006213C20FFF7BCFE9DF8073003F0E0035E
:100DC000802B57D041D8402B4AD0602B4DD0202BC0
:100DD0005DD14FF4757340F24C422E4C334861782C
:100DE00007EE902A22784FF47A7501EB022111FB6D
:100DF00005F107EE101AF8EEE77AB8EEC77AA27896
:100E0000E178C7EE276A01EB022111FB05F1627957
:100E100007EE101AB8EEC77AC0ED006AC7EE276A6F
:100E2000217902EB012212FB05F207EE902AB8EEBF
:100E3000E77A07EE903AF8EEE77AC0ED016AC7EE7E
:100E4000276AC0ED026A03B030BDC02B17D0E02B7B
:100E50001AD0A02B1BD140F263134FF4C872BCE729
:100E60004FF43E7340F25732B7E74FF4167340F237
:100E70009E22B2E74FF4C8734FF4E172ADE740F23F
:100E800027134FF4A572A8E7CD23E622A5E7002398
:100E90001A46A2E7AC0E0010AD0E0010AE0E001008
:100EA000AF0E0010B00E0010B10E0010A00E00101A
:100EB00030B59DB0002401214FF48020009401F052
:100EC000F1F9504801F0DEF91CA9032341F8683D0F
:100ED0004D488DF80D308DF80C308DF80F4000F036
:100EE000B7FF0121022001F0DDF9484B1193484B77
:100EF00012930223ADF85030802316934FF4807381
:100F000017934FF4806318932023199311A94FF47A
:100F1000805340481A93139415941B9400F06CFE70
:100F200001214FF0005001F0BDF909A800F0CCFC00
:100F30000121394800F01EFD384B01930199002929
:100F400059D13548344D00F00AFD334800F0FFFC1C
:100F5000284600F00CFD04460028F9D1009B2E48DD
:100F60000133009300F0F8FC02254FF40043009099
:100F700004A929480494059406938DF82040079508
:100F800000F0AEFC4FF4005309A9234809930A94DA
:100F90000B940C940D940E940F948DF8405000F027
:100FA00075FC0122114606231B481B4C00F0EFFC88
:100FB00006232A460C21184800F0E9FC2946164869
:100FC00000F04FFD0121144800F042FD01211248BC
:100FD00000F0B4FC0121204600F04BFD012168B176
:100FE0000C4800F027FE0C4800F02DFD0C4B0122B0
:100FF0001A701DB030BD019B013B9EE7204600F0FA
:101000009DFCE7E700340010000800484004005051
:10101000000800205804024000040050A08601008F
:10102000D40E0010024B08B91878704758787047F2
:10103000B20E001010B5174B1B78012B29D1164B9F
:1010400003F10F021846597803F8011B197CD97374
:101050009A42F8D1114A13881B09C37353881B099C
:10106000C37700231A46815C01320B44102A9BB2DD
:10107000F9D10B4A6FEA1313137000231946441871
:101080000131247C102923449BB2F8D16FEA131359
:10109000537010BDD40E0010B40E001000080020D4
:1010A000B20E0010014B986801F080BF10E000E024
:1010B00008B501F085FF80B208BD0000084B82B280
:1010C0009A824FF0904248F202131385000C054BB0
:1010D000918A33F810300B439BB29382704700BF64
:1010E000000C0048C839030813B501214FF4F01073
:1010F00001F0D8F8684600F0F4FE03238DF80530BF
:101100000123164C8DF8043069464FF6FF731448DE
:10111000009300F09DFE48F2021369464FF09040A4
:10112000009300F095FE4FF4E0636946204600937B
:1011300000F08EFEFF2300936946002309488DF8D6
:10114000043000F085FE4FF48073A3614FF4007308
:10115000A3614FF48063A36102B010BD0004004896
:10116000000C00480008004808B5FFF7A7FF00BFC3
:1011700000BF00BF094B4FF480721A8500BF4FF4C7
:101180008061198500BF00BF00BF00BF0448008A0E
:10119000996180B200BF9A61C0B208BD00040048E6
:1011A00000080048F8B50E46FFF788FF00BF00BFF3
:1011B00000BF00BF124B134D1A6813482A4042F477
:1011C000AA4242F055024FF480771A6007859C8A44
:1011D00004F47F449C829A8A92B242EA0601998280
:1011E00000BF00BF4FF40072028500BF00BF00BF08
:1011F00000BF826100BF87611A682A401A60F8BD8B
:10120000000800480000FFFF00040048F8B50D4644
:1012100016460C46471A631B9E4200DCF8BD38197F
:10122000FFF7A2FF04F8010BF5E7F8B50D461646E7
:101230000C46471A631B9E4200DCF8BD381914F8AF
:10124000011BFFF7AFFFF5E7034B186810B1034B25
:1012500001201870704700BFD80E0010DD0E00107E
:10126000014B00221A707047DD0E0010014B186010
:10127000704700BFD80E0010084B1B786BB1084AAE
:1012800013780133DBB2632B01D81370704700234E
:101290001370044B1B6803B118477047DD0E001034
:1012A000DC0E0010D80E0010084B984207D0A3F5B2
:1012B0007443984205D1064BB3F8B4007047054B10
:1012C000FAE70023B3F8B430FFDE00BF0038014076
:1012D000E00E001018190010084B984207D0A3F533
:1012E0007443984205D1064BB3F858007047054B3C
:1012F000FAE70023B3F85830FFDE00BF00380140A2
:10130000E00E001018190010704700002DE9F0439E
:101310008DB0054691460F4601F03CF9624A4FF008
:10132000030802260023012495428DF80D808DF8D4
:101330000C608DF80E308DF80F408DF815808DF80B
:1013400014608DF816308DF8174073D14FF480403B
:10135000214600F0B3FF25238DF8043004230DEB64
:1013600003008DF805308DF8074000F03BFEB9F121
:10137000000F22D121464FF4003000F093FF0CAC57
:101380004FF4007302934FF4806344F8203D02A9A8
:101390004FF0904000F05CFD21464FF0904000F08F
:1013A00057FD07220A214FF0904000F0AEFD0722C2
:1013B00009214FF0904000F0A8FD3C4B1B65002434
:1013C00003F15C02C3F8AC20C3F8B02006A928469C
:1013D000A3F85840A3F8B4405B650C230A93069722
:1013E0000794089409940B9401F022F9FFF78CFFFD
:1013F000012228462E4901F084F92846012101F0F6
:1014000073F901214FF4801000F04CFF03238DF895
:101410000D3001238DF80C3002A94FF440432548CC
:101420008DF80E408DF80F40029300F011FD0DB0C5
:10143000BDE8F083204A954234D14FF40030214674
:1014400000F048FF262301A88DF804308DF80560D0
:101450008DF8074000F0C6FDB9F1000F20D12146FC
:101460004FF4003000F01EFF0CAC0423029307225F
:10147000082331464FF0904044F8203D00F045FDF0
:10148000072241464FF0904000F03FFD02A94FF087
:10149000904000F0DDFC21464FF0904000F0D8FC79
:1014A000064B8BE71B65FFDE003801401819001062
:1014B00005010500000C004800440040E00E00104B
:1014C000704770477047704708B5FFF7EDFE00B9E9
:1014D000FEE708BDF8B505460E46FFF7F1FF154BD0
:1014E0009D4221D0144CA3F574439D4218BF0024A3
:1014F00004F15C072846FFF7D7FEB8B1D4F8B03046
:10150000B4F8B42013F8011BC4F8B030DB1B013A67
:101510004F2BA4F8B420C8BFC4F8B070284631706F
:10152000FFF7D0FF0120F8BD044CE1E72846FFF7A4
:10153000CBFFDFE700380140E00E00101819001063
:1015400008B5FFF7C9FE502800D1FEE708BD00002E
:1015500070B505460E46FFF7B4FF164B9D4223D0EB
:10156000154CA3F574439D4218BF00242846FFF78D
:10157000B3FE4F281ADC236D10491E70236DB4F89A
:101580005820013323651B1B4F2B02F10102A4F8E5
:101590005820C8BF24650122284601F0B2F8284629
:1015A000FFF791FF012070BD054CDFE72846FFF7EC
:1015B000C7FFDBE700380140E00E0010070107001D
:1015C000181900107047704737B500230D463A4987
:1015D0000193044601F0AEF8D0B1384A938A9BB229
:1015E00083F480439382B5F85820002A5FD06B6D56
:1015F00013F8011B6B655B1B013A4F2BA5F85820B4
:10160000C8BF6D65204601F078F82046FFF7DBFF84
:101610002B49204601F08EF828B32A4A938A9BB2C0
:1016200083F400439382A08C274BC0B21870D5F886
:10163000AC301870D5F8AC30B5F8B42005F15C01C9
:101640000133C5F8AC305B1A4F2B204BC8BFC5F82F
:10165000AC1001329C42A5F8B42001D1FCF7E8FAA5
:101660002046FFF7AFFF1A49204601F061F8019BC1
:1016700001330193A38C9BB20193238D9BB2019301
:10168000E3690193236A0193A3899BB201932368C1
:10169000019363680193A3680193238A9BB201932A
:1016A000238B9BB201936369019303B030BD024960
:1016B000204601F026F8A8E70701070000100048BF
:1016C00005010500000C0048980F0010003801408B
:1016D0005F1B120001490248FFF776BF181900107E
:1016E0000038014001490248FFF76EBFE00E0010CC
:1016F000004400402DE9F14F814690460C4609EB2D
:1017000008051E46002004EB060B9DF828709DF886
:101710002CA0FEF77FFC23462A4621464846FEF7CA
:1017200013FD5B464A4621464846FEF70DFD5B46E3
:101730002A4621462846FEF707FD5B462A465946BB
:101740004846FEF701FD574528BF57460234A8F129
:1017500004080320FEF75EFC17FB08F509F1020000
:101760002644043EADB295FBFAF52F1833463A46AF
:101770002146FEF70BFDFF20FEF74CFC781C08EB22
:1017800000023346521B214601B0BDE8F04FFEF780
:10179000FDBC2DE9F14F064617460D4606EB070A3C
:1017A0009846002005EB080B0A9CDDF82C90FEF70C
:1017B00031FC2B46524629463046FEF7C5FC5B46B7
:1017C000324629463046FEF7BFFC5B465246294664
:1017D0005046FEF7B9FC5B46524659463046FEF786
:1017E000B3FC002C03DD4C4508D309F1FF34002C79
:1017F00004DA6342994598BFC9F10104043F02220B
:10180000023597FBF2F37C43032094FBF9F494FB3D
:10181000F2F41C44A4B2FEF7FDFBA844B01C061968
:10182000A8F10408434632462946FEF7AFFCFF20E4
:10183000FEF7F0FB701C3A184346121B294601B014
:10184000BDE8F04FFEF7A2BC70B516460446084648
:101850001D46FEF7E7FB3046FEF7DCFB2846FEF7A9
:10186000DDFB094B002108461A68FEF72BFC2046D9
:10187000FBF7C6FFC0F12800224600214008BDE862
:101880007040FEF71FBC00BF98050010C3680D4AEA
:1018900010B51A4091E8180023438C682343CC68A4
:1018A00023430C6923434C6923438C69234313432B
:1018B000C360026B0B7F22F00F02013B13430363F3
:1018C00010BD00BF07C0FFFD0023036043608360BD
:1018D000C3600361436183610123037770470000A4
:1018E000B0F1A04F10B5114B02D0114A904218D15F
:1018F000104A94681C4091E80C0013438A68134313
:10190000CA6843EA02330A7CB0F1A04F43EA0223DB
:1019100043EA040302D0064A904204D1054A936088
:1019200010BD054AE5E7044AF9E700BFE010FCFFF7
:10193000000100500003005000070050836819B1F7
:1019400043F001038360704743F00203FAE78368C2
:1019500043F0004383607047D0F8B4007047836859
:1019600023F08043836083681943816070478068F7
:10197000C00F7047836823F040538360836819B1B8
:1019800043F080538360704743F00053FAE7042A22
:1019900030B51CD802EB4202046B52001F25954063
:1019A00024EA050401FA02F222430263092939D923
:1019B0000A398269826901EB410107248C4022EADD
:1019C0000402826182698B401343836130BD092A1E
:1019D0000CD80624053A6243456B1F24944025EA3F
:1019E000040401FA02F222434263DFE70E2A4FF0B9
:1019F00006040BD80A3A6243856B1F24944025EAFB
:101A0000040401FA02F222438263CFE70F3A6243F1
:101A1000C56B1F24944025EA040401FA02F2224314
:101A2000C263C3E701394269426901EB41013824CD
:101A30008C4022EA040242614269033103FA01F157
:101A40001143416130BD836843F0040383607047F4
:101A5000C36819B143F00103C360704723F0010369
:101A6000FAE7C36823F00203C360C3681943C16087
:101A7000704703680B4214BF01200020704708B56F
:101A800001214FF0005000F049FC00214FF00050C0
:101A9000BDE8084000F042BC30B5094C40F6FE738A
:101AA0002268834022EA030291E828002B438D68D4
:101AB000C9682B430B4303FA00F01043206030BD8C
:101AC00000740040064A012321B1116883400B4392
:101AD000136070471168834021EA0303F8E700BFF1
:101AE00000740040064A4FF4805321B111688340CE
:101AF0000B43136070471168834021EA0303F8E742
:101B000000740040036823F001031B041B0C0360F6
:101B10000023036043608360C360294B984204D173
:101B2000284A536843F00F0326E0274B984204D11C
:101B3000244A536843F0F0031EE0244B984204D13A
:101B4000204A536843F4706316E0214B984204D155
:101B50001C4A536843F470430EE01E4B984204D174
:101B6000184A536843F4702306E01B4B984205D192
:101B7000144A536843F4700353607047174B9842FC
:101B800004D1104A536843F07063F5E7144B984250
:101B900001D1144AC5E7144B984201D1114AC8E754
:101BA000124B984201D10F4ACBE7114B984201D119
:101BB0000C4ACEE70F4B9842DFD10A4AD1E700BF6B
:101BC00008000240000002401C00024030000240B9
:101BD00044000240580002406C0002408000024075
:101BE00008040240000402401C0402403004024089
:101BF00044040240580402408B68026810B50C6A25
:101C000023430C6923434C6923438C692343CC69E8
:101C100023434C6A23438C6A22F4FF4222F0700271
:101C20002343134303608B8943600B6883604B68D5
:101C3000C36010BD036819B143F00103036070472E
:101C400023F001031B041B0CF8E7036812B11943CE
:101C50000160704723EA0101FAE70000C3004CBFAE
:101C6000034B044B1B68034214BF01200020704744
:101C70000004024000000240C3004CBF014B024B75
:101C800058607047000402400000024082790368F7
:101C900070B50479002A64D023F01F0101F180415E
:101CA00001F5823103F01F020D68012303FA02F2ED
:101CB00025EA02020A600168324D21F01F0601F098
:101CC0001F01725903FA01F122EA01017151016801
:101CD00004F1804221F01F0502F5823201F01F015C
:101CE000AC5803FA01F12143A9500268264D22F0B5
:101CF0001F0402F01F02615903FA02F221EA0202F4
:101D000062510268214C22F01F0602F01F02315975
:101D100003FA02F221EA02024179325110290268E3
:101D200012D122F01F0102F01F024E5903FA02F2F3
:101D300032434A51026822F01F0102F01F02085983
:101D4000934003430B5170BD01F1804122F01F000D
:101D500001F5823102F01F0244589340234343505F
:101D600070BD04F1804223F01F0502F5823203F0BA
:101D70001F03A958012000FA03F321EA0303AB5023
:101D800070BD00BF04040140080401400C04014080
:101D9000044B1A69120641BF034A5A6002F18832A5
:101DA0005A6070470020024023016745024A1369C8
:101DB00043F080031361704700200240014BD8605C
:101DC000704700BF00200240084BDA68D10709D4F1
:101DD000DA68D20608D4DB6813F0040F14BF0320BE
:101DE0000420704701207047022070470020024005
:101DF00010B50446FFF7E8FF012806D10CB905200D
:101E000010BDFFF7E1FF013CF6E7002C08BF0520FD
:101E100010BD000038B505464FF43020FFF7E8FF4D
:101E2000042811D1094C236943F002032361656141
:101E3000236943F0400323614FF43020FFF7D8FFBC
:101E4000236923F00203236138BD00BF0020024054
:101E50002DE9F04100230F681D464FF0010E0326C7
:101E60000EFA05FC3CEA070234D10C79621E012A05
:101E700019D8826806FA03F822EA080282604A79D1
:101E8000D0F808809A4042EA08028260828892B2C2
:101E900022EA0C0282808A79B0F804C0AA4042EAA1
:101EA0000C0292B28280D0F800C006FA03F2D2434C
:101EB00002EA0C0CC0F800C0D0F800C09C4044EA14
:101EC0000C040460C4682240C260CA79C4689A40A5
:101ED0002243C2600135102D03F10203C0D1BDE8D9
:101EE000F0814FF6FF7303600222002303714271F9
:101EF0008371C3717047038A194214BF0120002007
:101F00007047816170470185704701F00703C90878
:101F100000EB810010B5016A9B000F249C4021EA70
:101F200004010162016A9A400A43026210BD000086
:101F30000368164A23F001030360036810B51A40D2
:101F40008C684B6843EA0423134303600B680A69F7
:101F500023F070630361036843F00103036000230F
:101F60008360C3608B69134383608368CA6843F4EA
:101F70000043836003681343036043684A6923F0A6
:101F8000784323F400431343436010BDFFE0CF00C8
:101F9000036819B143F001030360704723F00103A4
:101FA000FAE730B54468039D24F07F7424F4593473
:101FB000C1F309012B4324F47F74194324F0030473
:101FC00041EA02412143416030BD81627047406A6D
:101FD000C0B2704783690B4214BF012000207047D4
:101FE000C161704710B5C2780378E2B1124AD16876
:101FF00042788078C943C1F30221C1F10404A240B0
:102000000F2424FA01F101400A430C491201C818B7
:10201000D2B280F8002303F01F005A090123834045
:1020200041F8223010BD5A09012103F01F0301FAC3
:1020300003F320320149F3E700ED00E000E100E0A6
:102040008B4B5A6802F00C02042AF0B573D0082AB0
:1020500075D088490160002A6FD15968864FDFF832
:1020600020C2C1F3031117F801E001685FFA8EFE88
:1020700021FA0EF444605D68C5F302257D5D24FA03
:1020800005F585605E68C6F3C226BF5DFFB2FC4001
:10209000C460DE6AC6F304163CF81660B6B216F0E9
:1020A000100F0EBF0161B2FBF6F60661DE6AC6F3E1
:1020B00044263CF81660B6B216F0100F0EBF416110
:1020C000B2FBF6F646611E6BF6065ABF694E866194
:1020D00081611E6BB6065ABF664EC661C1611E6B3A
:1020E000F60541D58A423FD1BE453DD15600066234
:1020F0001E6BB6053AD58A4238D1BE4536D14A0064
:1021000042621A6B920733D184621A6B12F4403F19
:1021100045D1C5621A6B12F4402F5AD105631A6B70
:1021200012F4401F6FD145631A6B12F4400F40F058
:1021300085808563F0BD4F4A026000228DE75A68B2
:102140005968C90349BFD96A4C494A4C01F00F018B
:10215000C2F3834248BF013102F1020248BFB4FB1F
:10216000F1F14A43026078E70462C1E74462C8E7DC
:102170001A6B02F00302012A01D18162C5E71A6BD2
:1021800002F00302022A03D14FF400428262BCE74C
:102190001A6B02F00302032AB7D1364AF6E71A6B2C
:1021A00002F44032B2F5803F01D1C162B2E71A6B4E
:1021B00002F44032B2F5003F03D14FF40042C26254
:1021C000A8E71A6B02F44032B2F5403FA2D1294A87
:1021D000F5E71A6B02F44022B2F5802F01D10163BA
:1021E0009DE71A6B02F44022B2F5002F03D14FF4A1
:1021F0000042026393E71A6B02F44022B2F5402FCB
:102200008DD11C4AF5E71A6B02F44012B2F5801F1B
:1022100001D1416388E71A6B02F44012B2F5001F46
:1022200003D14FF4004242637EE71A6B02F440127E
:10223000B2F5401F7FF478AF0E4AF4E71A6B02F450
:102240004002B2F5800F01D18163F0BD1A6B02F438
:102250004002B2F5000F03D14FF400438363F0BD99
:102260001B6B03F44003B3F5400FF8D1014BF5E7C6
:102270000010024000127A00B605001000093D006F
:102280009C050010030F064BDA6A14BF22F4785243
:1022900022F4F872DA62DA6A1043D862704700BF3B
:1022A00000100240044B5A6911B110435861704745
:1022B00022EA0000FAE700BF00100240044B9A69CE
:1022C00011B110439861704722EA0000FAE700BF9D
:1022D00000100240044BDA6911B11043D861704715
:1022E00022EA0000FAE700BF00100240044B9A6A9D
:1022F00011B110439862704722EA0000FAE700BF6C
:1023000000100240044BDA6811B11043D8607047E6
:1023100022EA0000FAE700BF00100240044B1A69ED
:1023200011B110431861704722EA0000FAE700BFBC
:102330000010024008B5154B98420BD101214FF413
:102340008050FFF7DFFF00214FF48050BDE80840C8
:10235000FFF7D8BF0E4B98420BD101214FF48040BC
:10236000FFF7DCFF00214FF48040BDE80840FFF795
:10237000D5BF084B984208D101214FF40040FFF728
:10238000CDFF00214FF40040EFE708BD00300140D1
:1023900000380040003C00402DE9F0474C88B1F87F
:1023A00000A0B1F80680B1F808C0B1F80AE08F8942
:1023B000CE898D88B4F5827F22D1028802F4415201
:1023C00042EA0A0242F4827242EA080343EA0C0338
:1023D00043EA0E033B4333439BB20380838823F4D9
:1023E00070631B041B0C1D43ADB28580838B23F4EB
:1023F00000631B041B0C83830B8A0382BDE8F087F8
:10240000B0F8049029F470694FEA09494FEA194974
:1024100049EA0505ADB28580038803F4415323439F
:1024200043EA0A0343EA080343EA0C0343EA0E03C0
:102430003B4333439BB20380D8E7038821B19BB26F
:1024400043F040030380704723F040031B041B0C40
:10245000F8E7838823F480531B041B0C8380838854
:102460009BB219438180704701737047007B7047AE
:102470000389194214BF01200020704701F00303B3
:1024800001F0FC0101F1804101F5803110B58A684D
:102490009B000F249C4022EA04028A608A689840CC
:1024A0001043886010BD0000204A038890429BB210
:1024B0000ED002F5006290420AD0B0F1804F07D0F2
:1024C000A2F59832904203D002F58062904203D187
:1024D0004A8823F070031343154A904208D002F54E
:1024E000806290421FBF23F440730A899BB213435A
:1024F00003804B68C3620B8803850C4B98420FD056
:1025000003F5006398420BD003F54063984207D06F
:1025100003F58063984203D003F58063984201D1AC
:102520008B7A038601234361704700BF002C014072
:10253000001000404FF0FF3343600023038003810D
:10254000438083727047C1627047038821B19BB298
:1025500043F001030380704723F001031B041B0CAD
:10256000F8E7C94389B201617047C36812B11943E2
:10257000C1607047C94389B21940F9E7FFF7F5BF59
:10258000436823F070031B041B0C4360436819432A
:102590004160704708B5214B98420BD101214FF49F
:1025A0008040FFF7AFFE00214FF48040BDE80840B7
:1025B000FFF7A8BE1A4B98420BD101214FF400300F
:1025C000FFF7ACFE00214FF40030BDE80840FFF7F4
:1025D000A5BE144B984208D101214FF48020FFF78B
:1025E0009DFE00214FF48020EFE70F4B984208D169
:1025F00001214FF40020FFF791FE00214FF400204D
:10260000E3E70A4B984208D101214FF48010FFF70D
:1026100085FE00214FF48010D7E708BD0038014047
:102620000044004000480040004C00400050004082
:1026300003688A6823F0010330B50360436823F41C
:102640004053134343600D464B68C96802680B430F
:10265000296922F4B05222F00C020B4313430360A9
:1026600083686A6923F44073134391B0836004461E
:1026700001A8FFF7E5FC184B9C421CD10B9A23687C
:10268000296813F4004F18BF5200B2FBF1F301FBAD
:102690001322B2EB510F226828BF0133120406D572
:1026A000C3F3420223F00F031B041B0C13439BB222
:1026B000A38111B030BD094B9C4201D10C9ADEE7D9
:1026C000074B9C4201D10D9AD9E7064B9C420CBFA7
:1026D0000E9A0F9AD3E700BF003801400044004033
:1026E00000480040004C0040036819B143F001036A
:1026F0000360704723F00103FAE7C1F30801018585
:10270000704710B5C1F30724CBB2022C4FF0010182
:1027100001FA03F105D10430036832B119430160B5
:1027200010BD032C08BF0830F6E723EA0101F6E7E5
:1027300001627047C1F3072210B50123CCB2012A10
:1027400003FA04F30CD102681340C2696BB1012390
:10275000090C03FA01F1114214BF1846002010BD04
:10276000022A0CBF42688268EEE7184610BD0000DE
:1027700018488047002103E0174B5B584350043151
:102780001648174B42189A42F6D3164A02E0002325
:1027900013600432144B9A42F9D3DFF850000168F9
:1027A00041F470010160BFF34F8FBFF36F8FDFF80B
:1027B0004000016841F4E0210160BFF34F8FDFF872
:1027C0003400DFF8341001600C488546FBF790FDBB
:1027D000FEE7000081280308E45E0308800500107E
:1027E000080E0010080E0010F819001088ED00E027
:1027F00024ED00E00CED00E00003FA0500040010F9
:1028000072B680F3088881F309884FF0000080F3E6
:102810001488BFF36F8F09484FF08051084A086051
:1028200001F104019142FAD10649074A086001F119
:1028300004019142FAD162B670470000EFBEADDEEE
:10284000000400100090002000A000204FF00000C5
:102850006946FBF771B94FF001006946FBF76CB9A7
:102860004FF002006946FBF767B94FF00300694675
:10287000FBF762B94FF004006946FBF75DB9000051
:10288000354B1A6842F001021A605968334A0A400F
:102890005A601A6822F0847222F480321A601A6830
:1028A00022F480221A605A6822F4FE025A60DA6A20
:1028B00022F00F02DA62196B294A82B00A401A63C9
:1028C00000229A60009201921A6842F480321A60E3
:1028D0001A6802F400320192009A01320092019AC1
:1028E0001AB9009AB2F5A06FF2D11A6812F4003248
:1028F00018BF01220192019A012A05D0194B4FF00D
:1029000000629A6002B07047174A122111605A683B
:102910005A605A685A605A6842F480625A605A682B
:1029200022F47C125A605A6842F4E8125A601A681B
:1029300042F080721A601A689201FCD55A6822F03F
:1029400003025A605A6842F002025A605A6802F062
:102950000C02082AFAD1D1E7001002400CC07FF81F
:10296000CCFC00FF00ED00E000200240014B1868A5
:10297000704700BFCC050010024B0146186800F0FC
:102980000BB800BFCC050010024B0146186800F0E0
:1029900099BB00BFCC0500102DE9F04F01F10B06EB
:1029A000162E83B0054640F29E8036F0070600F1F1
:1029B000BD80B14200F2BA8000F0ECFAB6F5FC7FBF
:1029C000C0F09382730A00F0B880042B00F2798182
:1029D000B30903F1390003F1380EC300BF4F3B4484
:1029E000A3F108015C68A14206D10CE0002A80F244
:1029F000AA80E468A14206D0636823F003039A1B0F
:102A00000F2AF3DD70463C69DFF8E4E2744500F01C
:102A1000AB81636823F003039A1B0F2A00F39081B4
:102A2000002AC7F814E0C7F810E080F29D80B3F5E3
:102A3000007F80F06181DB0803F1010C99107A6856
:102A400057F83C80C4F8088001238B4007EBCC0189
:102A500013430839E1607B6047F83C40C8F80C40FC
:102A60008210012494409C4200F28B801C4206D1CB
:102A700020F0030064001C4200F10400FAD007EBD0
:102A8000C009CC468046DCF80C309C4507D16DE18E
:102A9000002A80F27B81DB689C4500F067815968E1
:102AA00021F003018A1B0F2AF2DDD3F80CC0D3F802
:102AB000088000939C19284646F0010642F0010563
:102AC0005E60C8F80CC0CCF808807C613C61C4F83A
:102AD0000CE0C4F808E065605A5000F061FA009B11
:102AE00003F108041EE0102920D800F053FA102644
:102AF00018230220794F3B44A3F108025C689442FA
:102B000000F03D816368E168A66823F00303234475
:102B100028465A68F16042F001028E605A6000F067
:102B20003FFA0834204603B0BDE8F08F00240C23A0
:102B300020462B6003B0BDE8F08F40204FF40073B7
:102B40004FF03F0E4AE72344E1685A68A66842F016
:102B50000102F16028468E605A6000F021FA0834C4
:102B6000204603B0BDE8F08F234428465A6842F05F
:102B700001025A6000F014FA0834204603B0BDE8A0
:102B8000F08FBC68636823F00308B04504D3A8EB5A
:102B900006030F2B00F38580DFF85891504BD9F8CE
:102BA00000201B680132334404EB080A00F0558111
:102BB00003F580530F3323F47F6B2BF00F0B594633
:102BC000284600F01DFA411C024600F0FC808245B8
:102BD00000F2F780434B19685944196000F04D81A9
:102BE000D9F8000001301BBFA2EB0A0A5144C9F812
:102BF0000020196012F0070100F01581C1F10800F2
:102C0000C1F580510244083102EB0B09C9F30B09ED
:102C1000A1EB0909494628460193009200F0F0F91A
:102C2000431C9DE80C0000F04381801A484440F0AA
:102C300001001968BA604944BC425060196017D05D
:102C4000B8F10F0F40F2FB806068A8F10C0222F08F
:102C5000070204EB020E00F001004FF0050C1043D8
:102C60000F2A6060CEF804C0CEF808C000F21781C9
:102C70001D4BBC681A68914288BF19601B4B1A68CB
:102C80009142626888BF196022F003029642A2EB6B
:102C9000060301D80F2B04DC284600F081F900243C
:102CA00040E7A21943F0010346F00106666028469A
:102CB000BA60536000F074F90834204603B0BDE8F0
:102CC000F08F142B71D9542B00F2A380330B03F136
:102CD0006F0003F16E0EC30080E600BFF80900101C
:102CE000CC0F00109C0F0010C40F0010C80F001074
:102CF000000A0010000E00105A0A042A5BD9142A98
:102D000000F2AE8002F15C01C9005B3207EB010CFE
:102D10007958ACF1080C8C4500F088804A6822F0A4
:102D20000302934273D289688C45F7D1DCF80C20FA
:102D30007B68E260C4F808C09460CCF80C408FE671
:102D4000A11946F0010C42F00106C4F804C028465F
:102D500079613961C1F80CE0C1F808E04E60E250D9
:102D600000F01EF90834DDE67B6879E608F1010819
:102D700018F0030F0CF1080C7FF485AE2DE0DC6831
:102D8000A34208BF02303FF43EAEBBE619441C46E6
:102D90004A68DB6854F8086F42F001024A6028462E
:102DA000F3609E6000F0FCF8BCE603F15C0003F108
:102DB0005B0EC30012E69A0902F13901C9003832EC
:102DC000A4E7BC4254D0BC68626822F003025DE70D
:102DD00059F80839994540F0868010F0030F00F14A
:102DE000FF30F5D17B6823EA04037B6064009C42DA
:102DF0003FF6C7AE002C3FF4C4AE1C4240467FF401
:102E00003EAE64001C4200F10400FAD037E68C4666
:102E10008CE7B3F5AA7F15D8F30B03F1780003F123
:102E2000770EC300DAE54FF48051EDE67B6892102F
:102E3000012101FA02F213437B60624679E7012324
:102E4000536029E740F25452934222D8B30C03F165
:102E50007D0003F17C0EC300C0E503F1100BAEE66C
:102E6000542A29D81A0B02F16F01C9006E324DE7BE
:102E7000204B196859441960B2E6CAF30B000028C8
:102E80007FF4AEAE08EB0B03BA6843F00103536066
:102E9000EEE67F204FF47E734FF07E0E9EE504F148
:102EA00008012846009300F00DF9009B1968DFE641
:102EB00001204FF00009BCE6B2F5AA7F05D8DA0B75
:102EC00002F17801C900773220E740F254518A427A
:102ED00005D89A0C02F17D01C9007C3216E74FF447
:102EE0007E717E2212E77B6880E7F00806F1080316
:102EF00000E600BF9C0F001070B4860746D0541E39
:102F0000002A41D0CAB2034602E014F1FF343BD399
:102F100003F8012B9D07F8D1032C2ED9CDB245EA39
:102F200005250F2C45EA054519D903F1100226465F
:102F3000103E0F2E42F8105C42F80C5C42F8085C20
:102F400042F8045C02F11002F2D8A4F1100222F05F
:102F50000F0204F00F041032032C13440DD91E4647
:102F60002246043A032A46F8045BFAD8221F22F0CC
:102F700003020432134404F003042CB1C9B21C440C
:102F800003F8011B9C42FBD170BC704714460346FA
:102F9000C2E700BF014800F07BB900BFE019001094
:102FA000014800F077B900BFE0190010034B1B681F
:102FB0000022C3F8A800C3F8AC207047CC0500106D
:102FC00010B40C4B0C4819680C4CD1F8A820D1F85F
:102FD000AC3000FB02F004FB0300A2FB042303441B
:102FE000013243F10003C1E92A2323F000405DF8D8
:102FF000044B7047CC0500102DF451582D7F954C93
:1030000038B5074C0023054608462360FAF7C2FE90
:10301000431C00D038BD2368002BFBD02B6038BD8B
:10302000F4190010F8B5244F0C460646FFF7B2FF1E
:10303000BB685D68C4F57E610F3125F00305294446
:1030400021F47F6121F00F01A1F58054B4F5805F78
:1030500007DB00213046FFF7D3FFBB682B449842C3
:1030600004D03046FFF79CFF0020F8BD6142304697
:10307000FFF7C6FF01300DD0104BBA6819682D1B41
:1030800045F001053046091B55601960FFF788FFC0
:103090000120F8BD00213046FFF7B2FFBA68831A5D
:1030A0000F2BDEDD064C0549246843F00103001BAD
:1030B00053600860D5E700BFF80900109C0F0010AE
:1030C000000E0010002944D02DE9F0410D46804645
:1030D000FFF760FF55F8047C694927F00103A5F16B
:1030E0000804E2188E685068B24220F003005ED0F7
:1030F000FE0750600BD455F8087CE41B01F1080E64
:10310000A56875453B446DD0E768EF60BD60151854
:103110006D68ED073ED543F001026260E350B3F500
:10312000007F17D2DB08581C9A104D6851F8307098
:10313000A7600123934001EBC0022B43083AE260F1
:103140004B6041F83040FC604046BDE8F041FFF77D
:1031500027BF70475A0A042A52D89A0902F1390740
:10316000FF0002F13805C819CA59083890424FD0FB
:10317000516821F003018B4232D292689042F7D11C
:10318000C368A060E3609C60C4604046BDE8F04155
:10319000FFF706BF95683B4FBD42034440D0D0685F
:1031A000E86043F0010285606260E350B7E7FF0723
:1031B000034407D455F8082CA41A1344A068E26805
:1031C000C2609060304A126843F001009342606030
:1031D0008C60B9D32D4B40461968FFF723FFB3E746
:1031E0001046CDE711184968C90744D49168D268E0
:1031F000CA60034443F0010091606060E350A3E7BC
:10320000142A16D802F15C07FF0002F15B05AAE759
:10321000AA1001234D6893402B434B600346B0E74F
:1032200043F001024C610C61E560A5606260E3500F
:103230008AE7542A06D81A0B02F16F07FF0002F141
:103240006E0590E7B2F5AA7F06D8DA0B02F178078F
:10325000FF0002F1770586E740F25450824206D81B
:103260009A0C02F17D07FF0002F17C057BE74FF429
:103270007E777E2577E743F001016160136063E7A5
:10328000F8090010000A0010040E0010CC0F001006
:08329000704700BF704700BF4A
:103298005F41424907000000E0D80208496E7661A4
:1032A8006C69642066756E6374696F6E20726571EF
:1032B8007565737465642E00496E76616C69642067
:1032C8004150492043616C6C00000000A33303089F
