:020000040800F2
:100000000014002049230908FB23090807240908D4
:10001000132409081F2409082B24090800000000E4
:10002000000000000000000000000000E5230908B7
:100030003724090800000000E523090839240908CD
:10004000E5230908E5230908E5230908E52309084C
:10005000E5230908E52309083D240908E5230908E3
:1000600045240908E5230908E5230908E5230908CB
:10007000E5230908E5230908E5230908E52309081C
:10008000E5230908E5230908E5230908E52309080C
:10009000E5230908E5230908E52309084B24090895
:1000A000E5230908E5230908E5230908E5230908EC
:1000B000E5230908E523090871CD0808E5230908A7
:1000C000E5230908E5230908E5230908E5230908CC
:1000D000E5230908AF240908E5230908E5230908F1
:1000E00063240908E5230908E5230908E52309082D
:1000F000E5230908E5230908E5230908E52309089C
:10010000E5230908E5230908E5230908E52309088B
:10011000E5230908E523090881B1080805DE080878
:100120008B24090899240908E5230908E52309080F
:100130009B240908E5230908E5230908E5230908A4
:10014000E5230908E5230908E5230908E52309084B
:10015000E5230908E52309087D240908B3240908D3
:10016000E5230908E5230908E5230908E52309082B
:10017000E5230908E5230908A9240908000000006F
:10018000E5230908E5230908E5230908E52309080B
:10019000E5230908E5230908E5230908E5230908FB
:1001A000E5230908E5230908AB240908E523090824
:1001B000E5230908E5230908E5230908E5230908DB
:0801C000E5230908E523090805
:020000040803EF
:08FFF80049230908902E0908B5
:020000040808EA
:1000000010B5054C237833B9044B13B10448AFF352
:1000100000800123237010BDE0B300200000000029
:10002000B82D090808B5034B1BB103490348AFF3CA
:10003000008008BD00000000E4B30020B82D0908CE
:10004000034613F8012B002AFBD1181A0138704718
:1000500001F0FF01102A2BDB10F0070F08D010F879
:10006000013B013A8B422DD010F0070F42B3F6D17D
:10007000F0B441EA012141EA014122F007047FF096
:1000800000070023F0E80256083C85EA010586EAED
:10009000010685FA47F5A3FA87F586FA47F6A5FA29
:1000A00087F68EB9EED1F0BC01F0FF0102F0070235
:1000B00032B110F8013B013A83EA010313B1F8D1E0
:1000C0000020704701387047002D06BF35460338C1
:1000D000073815F0010F07D1013015F4807F02BFFA
:1000E000013015F4C03F0130F0BC0138704700BF4B
:1000F0007BB972B90029BEBF00204FF0004106E075
:1001000008BF00281CBF6FF000414FF0FF3000F027
:10011000C5B9ADF1080C6DE904CE002909DB002B4F
:100120001ADB00F04DF8DDF804E0DDE9022304B04D
:100130007047404261EB4101002B1BDB00F040F8AF
:10014000DDF804E0DDE9022304B0404261EB410147
:10015000524263EB43037047524263EB430300F0A8
:100160002FF8DDF804E0DDE9022304B0404261EB42
:1001700041017047524263EB430300F021F8DDF880
:1001800004E0DDE9022304B0524263EB430370470D
:1001900053B94AB9002908BF00281CBF4FF0FF31EE
:1001A0004FF0FF3000F07AB9ADF1080C6DE904CEE4
:1001B00000F006F8DDF804E0DDE9022304B0704742
:1001C0002DE9F0478C460D460446089E002B51D180
:1001D0008A4217466DD9B2FA82FEBEF1000F0BD0EB
:1001E000CEF1200C01FA0EF520FA0CFC02FA0EF703
:1001F0004CEA050C00FA0EF44FEA174A250CBCFB3A
:10020000FAF81FFA87F90AFB18CC45EA0C4508FBF7
:1002100009F3AB420AD9ED1908F1FF3280F02381CE
:10022000AB4240F22081A8F102083D44ED1AA4B28D
:10023000B5FBFAF00AFB105544EA054400FB09F946
:10024000A14509D9E41900F1FF3380F00A81A145E5
:1002500040F2078102383C44A4EB090440EA08401C
:100260000021002E61D024FA0EF400233460736064
:10027000BDE8F0878B4207D9002E54D0002186E8D4
:1002800021000846BDE8F087B3FA83F1002940F069
:100290008E80AB4202D3824200F2FA80841A65EB70
:1002A00003050120AC46002E3FD086E81010BDE8C3
:1002B000F08712B90127B7FBF2F7B7FA87FEBEF154
:1002C000000F34D1EB1B3A0C1FFA87FC0121B3FB62
:1002D000F2F8250C02FB183345EA03450CFB08F342
:1002E000AB4207D9ED1908F1FF3002D2AB4200F260
:1002F000D1808046ED1AA3B2B5FBF2F002FB105597
:1003000043EA05440CFB00FCA44507D9E41900F1BD
:10031000FF3302D2A44500F2B8801846A4EB0C04C7
:1003200040EA08409DE731463046BDE8F087CEF10F
:10033000200405FA0EF307FA0EF720FA04F83A0C37
:1003400025FA04F448EA0308B4FBF2F14FEA184531
:1003500002FB11441FFA87FC45EA044501FB0CF33C
:10036000AB4200FA0EF409D9ED1901F1FF3080F02B
:100370008A80AB4240F2878002393D44EB1A1FFA73
:1003800088F5B3FBF2F002FB103345EA034500FBAE
:100390000CF3AB4207D9ED1900F1FF386FD2AB4235
:1003A0006DD902383D44EB1A40EA01418FE7C1F1B3
:1003B000200722FA07F88B4005FA01F448EA030304
:1003C00020FA07FE4FEA134CFD404EEA040EB5FB3F
:1003D000FCF94FEA1E440CFB19551FFA83F844EA56
:1003E000054509FB08F4AC4202FA01F200FA01FAF1
:1003F00008D9ED1809F1FF3043D2AC4241D9A9F137
:1004000002091D442D1B1FFA8EFEB5FBFCF00CFBF0
:1004100010554EEA054400FB08F8A04507D9E4183A
:1004200000F1FF3529D2A04527D902381C4440EA03
:100430000940A4EB0804A0FB02894C45C6464D4682
:1004400015D312D056B1BAEB0E0364EB050404FACF
:1004500007F7CB401F43CC40376074600021BDE8F4
:10046000F0871846F8E69046E0E6C245EAD2B8EBD7
:10047000020E69EB03050138E4E72846D7E740465A
:1004800091E78146BEE7014678E702383C4445E7FC
:10049000084608E7A8F102083D442BE7704700BF73
:1004A000F0B561F07F0185B0002405468DF8081095
:1004B0001646818D2246806A8DF809408DF80A40E3
:1004C00006F09FF94FF47A7303AA02A9686A0093B1
:1004D00003230AF0FFF807460122A98DA86A06F057
:1004E00090F94FB99DF80E2001209DF80D3003EBD7
:1004F0000223338005B0F0BD2046FBE72DE9F04331
:100500001C46083383B0164623F0070361F07F01D1
:1005100002AFADEB030D80460022E946ADEB030DC3
:10052000012302AD09F8081F9C4223DA0022B8F823
:100530002C10D8F8280006F064F94FF47A73494675
:100540002A460093631CD8F824000AF0C3F88146B9
:100550000122B8F82C10D8F8280006F052F9B9F1A9
:10056000000F13D101239C4209DA01200437BD4654
:10057000BDE8F08309F803200133DBB2D4E7F218B9
:10058000E95C013302F8011CDBB2ECE70020EDE787
:1005900037B501F07F0104468DF8052000228DF863
:1005A0000410818D806A06F02CF94FF47A7301A94A
:1005B0000222606A09F0BDFF05460122A06AA18DF2
:1005C00006F01FF9B5FA85F0400903B030BD0323EA
:1005D0000022037042708370C370037143717047CF
:1005E00073B501230E4600F13402D0210446FFF713
:1005F00085FF08B90020EEE094F83430582B01D084
:10060000602BF7D1B622E0212046FFF7C1FF00287A
:10061000F0D0002501230DF10602F32120468DF8CC
:100620000650FFF76BFF0028F4D09DF80630DB077B
:10063000F0D4224688212046FFF732FF0028D9D087
:10064000A21C8A212046FFF72BFF0028D2D0221DB2
:100650008C212046FFF724FF0028CBD0A21D8E213D
:100660002046FFF71DFF0028C4D004F108029021A6
:100670002046FFF715FF0028BCD004F10A029221A2
:100680002046FFF70DFF0028B4D004F10C0294219E
:100690002046FFF705FF0028ACD004F10E0296219A
:1006A0002046FFF7FDFE0028A4D004F11002982197
:1006B0002046FFF7F5FE00289CD004F112029A2193
:1006C0002046FFF7EDFE002894D004F114029C218F
:1006D0002046FFF7E5FE00288CD004F116029E218B
:1006E0002046FFF7DDFE002884D094F83430602BDC
:1006F00049D1002304F11802A1212046ADF80430AD
:10070000ADF806300123FFF7F9FE00287FF472AF41
:1007100004F11A02E1212046FFF7C2FE00283FF44F
:1007200069AF012304F11C02E3212046FFF7E6FE36
:1007300000287FF45FAF01AAE4212046FFF7B0FE56
:1007400000283FF457AF0DF10602E5212046FFF7E0
:10075000A7FE00283FF44EAF012304F12202E72157
:100760002046FFF7CBFE00287FF444AFBDF80420FD
:100770001301C2F3032203F47F631343E383BDF841
:1007800006301B0923847278F52173792046920084
:1007900042EA431202F0FC02FFF7FAFE00283FF49F
:1007A00029AF3378B578012B4FEA850504BF0023C4
:1007B0003370F37845EA431533781D4394F83430A9
:1007C000602BEDB209D02A46F4212046FFF7E0FE67
:1007D000003018BF012002B070BD3279F2212046EE
:1007E000FFF7D6FE0028EED104E707B5002302AAE2
:1007F000F32102F8013D0123FFF780FE18B19DF8B7
:100800000700C0F3C00003B05DF804FBF7B51C4659
:1008100090F8343005460F46602B164604D00CB1D4
:1008200000232360062300E008236A46F7212846B8
:10083000FFF764FE08B39DF801309DF800201B010E
:100840009DF8031043EA02339DF8022043EA121395
:100850009DF80420120142EA01329DF8051042EA97
:1008600011123A60336095F83430602B04D1BDF832
:1008700006305BBA9BB22360012003B0F0BD2DE9C6
:10088000F04F8BB00E460446059208A9049307AAC0
:1008900009ABFFF7BBFF0390002800F0CC80089D58
:1008A0002288C2EB251352005B43C2EBE502B4F988
:1008B00002501B136A43B4F904505D43AD1305EBBA
:1008C000E225B4F9082005EB8503B5F5FA3A4FEABD
:1008D000E57B03F18003AAFB0A894BF1FF3B1B1266
:1008E00002FB0BF133600AFB0BF309EB4309D3174F
:1008F0000AFB0311A2FB0A230B4416031F0347EA5A
:100900001257B4F90A2002FB09F1D31708FB0313AD
:10091000A2FB08011944020A42EA01620B12921971
:10092000E6887B41003243F50043A2FB060106FB4B
:1009300003114A10CB1752EA030173D0B4F91060C7
:1009400006FB09F1F71708FB0711A6FB0867B4F9C6
:100950000E80CDE9006701984FEAE87901440191E2
:1009600008FB0BF10AFB0911A8FB0A8989440799C6
:100970004FEA4846C1F5801E4FEA4947DDE900AB22
:1009800047EAD837B4F90C801AEB060A76464FEAE4
:10099000CE704BEB070BF7170026F90716EB0A068C
:1009A0004FEAC80741EA5E0140F6354E47EB0B07B8
:1009B000861B61EB0707A6FB0E010EFB0711FFF775
:1009C00097FBB4F916204E13470B02FB06FED31714
:1009D00047EAC14707FB03EEA2FB072373445643D4
:1009E00007FB0366A2FB07233344560E46EAC316F1
:1009F0005F163218B4F9146047EB01037143F7171F
:100A000000FB0717A6FB00013944C60C46EA413635
:100A1000CF149219B4F912607B41100A320140EAF6
:100A20000360121805990A6094F83430602B06D0E0
:100A30000023049A136003980BB0BDE8F08FB4F95B
:100A40001E30A5F5963509991B05C3EB8131B4F924
:100A5000203005FB131303F58043D913237F6B4329
:100A6000DB1203F5004294F922305D43AB1253438D
:100A70009B1203F50012B4F91A30534303F50053E7
:100A80009B134B43217EDA135243D2114A43A3EB0B
:100A9000221323EAE373B3F1C85FA8BF4FF0C85332
:100AA0001B13C6E77FB50E4615461C4603BB02AABC
:100AB00001A9FFF7E4FEC8B10023DDED017AC4F21D
:100AC000C823B8EEE77A07EE903AC7EE276ADDED65
:100AD000027AFBEECC7AC6ED006AC5ED007A2CB145
:100AE000DDED037AFBEECB7AC4ED007A04B070BD85
:100AF00003ABDCE700207047704737B54BF2FE349C
:100B000000230546C2F200048DF8073023781BB994
:100B100001F08EF9012323700324EDB2013CA821DA
:100B2000284601F09EF914F0FF048DF807009DF8A7
:100B30000730DBB203D19DF8070003B030BD512B65
:100B4000ECD1F8E713B500240221C0B28DF80740BC
:100B500001F087F98DF807009DF8073003F00F03C7
:100B60008DF807309DF80730052B01D98DF8074027
:100B70004BF2FE339DF807209DF80700C2F20003F8
:100B80005A7000229A7002B010BD2DE9F74F4BF257
:100B9000FE34174600268946C2F200048DF807602D
:100BA000A37862789A4250D9092B51D842F6F8526C
:100BB000C0F60902D15C42F60262C0F6090212F8E0
:100BC00003B042F60C62C0F6090212F803A042F626
:100BD0001662C0F60902D65C5FFA80F84BF2FC356B
:100BE0004046C2F2000501F03CF98DF807009DF87F
:100BF0000730594640462B8001F033F98DF8070045
:100C000051469DF8073040462A881B0203F4706362
:100C10001343A9F800302B8001F023F98DF8070069
:100C200031469DF8073040462B8001F01AF98DF8C7
:100C300007009DF807302A881B0203F470631343F2
:100C40002B803B80A3780133A37003B0BDE8F08F05
:100C5000B246B3463146BFE70122A421C0B201F03B
:100C6000EFB80022A421C0B201F0EAB8FFF7F9BF43
:100C7000704710B54BF2FE34C82001F007F9C2F2FC
:100C8000000423781BB901F0D3F80123237010BDB1
:100C9000002313B50C46C0B201218DF8073001F0D6
:100CA000E0F88DF807009DF80730236002B010BD12
:100CB0002DE9F3411E464BF2FE3300241746C2F2E3
:100CC00000038DF807405B788B4232D9092933D86D
:100CD00042F62063C0F609035A5C42F62A63C0F666
:100CE000090313F8018042F63463C0F609035C5C23
:100CF000C5B21146284601F0B4F88DF807009DF8FA
:100D000007102846089B89091960414601F0A9F897
:100D10008DF807009DF80730214628463B6001F01A
:100D2000A0F88DF807009DF80720120902F00402D0
:100D3000326002B0BDE8F081A0462246D8E710B488
:100D400044688068A4465DF8044B604710B40468AA
:100D50008068A4465DF8044B604707EE900AB8EE41
:100D6000E70AF7EE087A20EE270A704707EE900AA6
:100D7000B3EE090AB8EEE77AF4EE007AA7EE270A96
:100D8000704737B501230D4601AA60210446FFF7DD
:100D9000D6FF58B99DF8043001AA6021204665F3BA
:100DA00001038DF804300123FFF7D0FF03B030BDFD
:100DB00037B501230D4601AA60210446FFF7BFFFA6
:100DC00058B99DF8043001AA6021204665F38303D9
:100DD0008DF804300123FFF7B9FF03B030BD37B5FC
:100DE00001230D4601AA60210446FFF7A8FF58B968
:100DF0009DF8043001AA6021204665F3C7138DF8E1
:100E000004300123FFF7A2FF03B030BD37B5012343
:100E10000D4601AA61210446FFF791FF58B99DF8DC
:100E2000043001AA6121204665F300038DF80430E7
:100E30000123FFF78BFF03B030BD37B501230D460B
:100E400001AA61210446FFF77AFF58B99DF80430E2
:100E500001AA6121204665F342038DF80430012385
:100E6000FFF774FF03B030BD37B501230D4601AA6B
:100E700062210446FFF763FF58B99DF8043001AAC8
:100E80006221204665F304138DF804300123FFF737
:100E90005DFF03B030BD13B501230C4601AA6721E5
:100EA000FFF74DFF9DF80430C3F3C003237002B079
:100EB00010BD0A4606236821FFF741BF0A460223F8
:100EC0006E21FFF73CBF0A4601234F21FFF737BFD2
:100ED00037B501230D4601AA60210446FFF72FFF15
:100EE00058B99DF8043001AA6021204665F34513E6
:100EF0008DF804300123FFF729FF03B030BD13B58F
:100F000001230C4601AA6021FFF719FF9DF8043068
:100F1000C3F34013237002B010BD37B501230D4653
:100F200001AA62210446FFF70AFF58B99DF8043070
:100F300001AA6221204665F300038DF804300123E5
:100F4000FFF704FF03B030BD10B444688068A446C6
:100F50005DF8044B604710B404688068A4465DF8EF
:100F6000044B6047002307EE900AC4F27423F8EEA6
:100F7000E77A00EE103A0023C4F27A4327EE800AA3
:100F800007EE903A80EE270A7047002307EE900A9A
:100F9000C4F28C23B8EEE70A07EE903A20EE270A57
:100FA000704707EE900A4FF07653B3EE090AB8EE99
:100FB000E77A07EE903AA7EE270A704737B5012384
:100FC0000D4601AA10210446FFF7BEFF58B99DF84F
:100FD000043001AA1021204665F383038DF8043004
:100FE0000123FFF7B8FF03B030BD37B501230D462D
:100FF00001AA10210446FFF7A7FF58B99DF8043055
:1010000001AA1021204665F307138DF8043001234F
:10101000FFF7A1FF03B030BD37B501230D4601AA8C
:1010200011210446FFF790FF58B99DF8043001AA3A
:101030001121204665F343038DF804300123FFF7A7
:101040008AFF03B030BD37B501230D4601AA112137
:101050000446FFF779FF58B99DF8043001AA112121
:10106000204665F307138DF804300123FFF773FF63
:1010700003B030BD37B501230D4601AA1221044645
:10108000FFF762FF58B99DF8043001AA12212046EB
:1010900065F386138DF804300123FFF75CFF03B07E
:1010A00030BD13B501230C4601AA1E21FFF74CFFEA
:1010B0009DF80430C3F30003237002B010BD13B5D4
:1010C00001230C4601AA1E21FFF73EFF9DF80430C4
:1010D000C3F34003237002B010BD13B501230C46C7
:1010E00001AA1E21FFF730FF9DF80430C3F38003EF
:1010F000237002B010BD0A4602232021FFF724BF4F
:101100000A4606232221FFF71FBF0A46062328218D
:10111000FFF71ABF0A4601230F21FFF715BF37B5A6
:1011200001230D4601AA12210446FFF70DFF58B90D
:101130009DF8043001AA1221204665F300038DF8C2
:1011400004300123FFF707FF03B030BD13B50123BF
:101150000C4601AA1221FFF7F7FE9DF80430C3F3F5
:101160000003237002B010BD022910B5C4B231D003
:10117000032921D001292DD140F60C42052120461A
:1011800000F02BFE002240F20161204600F025FE17
:10119000002240F20261204600F01FFE022240F2CF
:1011A0000461204600F019FE0222204640F205614B
:1011B00000F013FE002010BD40F60F7205212046FE
:1011C00000F00BFE012240F20161204600F005FE16
:1011D0000122DEE740F203320521204600F0FDFD4A
:1011E000012240F20161204600F0F7FD012240F2A9
:1011F0000261204600F0F1FD002240F20461204629
:1012000000F0EBFD0022D0E708B545F22263C0B242
:1012100099422DD010D842F61133994226D0B1F51B
:101220007A5F1FD0B1F5FA5F0ED103224FF404713B
:1012300000F0D3FD002008BD4AF64443994219D07E
:1012400004D8B1F5FA4F0FD08322EFE74BF6803385
:101250009942F9D04FF4EE43C0F201039942F3D121
:10126000A322E3E73322E1E76322DFE71322DDE78E
:101270004322DBE77322D9E70022C0B208B511464A
:1012800000F0ABFD4BF208430020C2F200031860EF
:101290004BF20443C2F20003186008BD00F09CBD8D
:1012A00010B5044600F0CAFD0021E0B200F0A7FD31
:1012B00010BD4BF20843C2F200031B6810B583B1A6
:1012C0000129C4B20FD14FF400724FF4846120465B
:1012D00000F083FD4FF4007240F22241204600F0FE
:1012E0007CFD002010BD10224FF48461204600F0E8
:1012F00074FD1022F0E70021FFF7DBBF38B50121B4
:101300000546FFF7D6FF04460122E8B2022100F0AD
:1013100064FD204638BD0021FFF7CBBF64294FF0A4
:1013200064039CBFC1EB811292FBF3F34BF20842C2
:10133000C2F200022DE9F041166805460C4636B3AC
:101340003E2B5FFA83F81DDDEFB20021FFF7B1FFFE
:1013500040F27F121C210646384600F03EFD40F266
:101360007F121D21384600F038FD40F27F12262101
:10137000384600F032FD40F27F122721384600F057
:101380002CFD04E091BB0121FFF793FF06464BF2D1
:101390000443C2F200031B682BB3632CEDB24FF47D
:1013A00080619ABFC4EB04146423EF2428469CBFD9
:1013B000240194FBF3F444F48074A4B2224600F0B8
:1013C0000CFD224640F20141284600F006FD22466F
:1013D00040F20441284600F000FD224640F205415B
:1013E000284600F0FAFC3046BDE8F08148F4A078C9
:1013F000EFB20021FFF75DFF42461C21064638464A
:1014000000F0EBFC42461D21384600F0E6FC424667
:101410002621384600F0E1FC4246AEE72DE9F84FC0
:1014200081461F4601F47F4592465FFA89F4CEB2A9
:1014300000F004FD03224FF48171204600F0CDFC42
:10144000002240F61701204600F0C7FC00224FF4AE
:101450008171204600F0C1FC6C223921204600F049
:10146000BCFCF5B313220121204600F0B6FC32206B
:1014700000F0DCFC4BF2044B4BF20843C2F2000BD1
:10148000C2F20003002E00F082804FF00108022E0D
:10149000C3F8008061D0032E25D046455DD140F6CB
:1014A0000C420521204600F098FC002240F2016128
:1014B000204600F092FC002240F20261204600F03B
:1014C0008CFC022240F20461204600F086FC0222DD
:1014D00040F20561204600F080FC35BBCBF800509F
:1014E000B0E00322BFE7B5F5006F40F60F724FF092
:1014F0000501204627D100F070FC324640F2016120
:10150000204600F06AFC324640F20261204600F0BC
:1015100064FC324640F20461204600F05EFC324634
:1015200040F20561204600F058FC0123B5F5007F2C
:10153000CBF8003062D02CD8B5F5807F00F0BB81AD
:101540004FF0010880E000F048FC424640F20161A3
:10155000204600F042FC4246AEE740F2033205214D
:10156000204600F03AFC424640F20161204600F07D
:1015700034FC424640F20261204600F02EFC00227C
:1015800040F20461204600F028FC0022A0E71E6023
:10159000A3E7B5F5407F00F05F81B5F5006FCFD1CF
:1015A00040F63C720421204600F017FCDB224FF489
:1015B0008A61204600F011FCDB224FF4886120464E
:1015C00000F00BFC46F2A0320221204600F005FCA0
:1015D000022240F20661204600F0FFFB022240F2A8
:1015E0000761204600F0F9FB02224FF4C16120465A
:1015F00000F0F3FB022240F2096157E14FF443622D
:101600000421204600F0E9FBDB224FF48A612046EA
:1016100000F0E3FB4FF4C0420221204600F0DDFB66
:1016200002224FF4C161204600F0D7FB022240F2B3
:101630000961204600F0D1FB0E224FF4E061204604
:1016400000F0CBFB4FF0000845F222639F4200F010
:10165000518100F2338142F611339F4200F04881FC
:10166000B7F57A5F00F04081B7F5FA5F40F02E8160
:1016700003224FF40471204600F0AFFBB5F5006F74
:101680004FF4407120460CBF44F2180244F210029D
:1016900000F0A3FB002240F20231204600F09DFB47
:1016A0000A224FF40271204600F097FB01224FF40A
:1016B0000071204600F091FB002E00F0AC80022E5D
:1016C00026D14BF228064FF480722D212046C2F21B
:1016D000000600F082FB4FF480722E21204600F0BD
:1016E0007CFB3378002B00F0098120464FF4014247
:1016F0004FF4887100F071FB00234FF49670337043
:1017000000F094FB00224FF48461204600F065FB5A
:101710004FF440720321204643F2033600F05DFB94
:1017200000222221204600F058FB002223212046DF
:1017300000F053FB4FF440723621204600F04DFB81
:1017400043F203020121204600F047FBB5F5006F8C
:101750004FF0510120460CBF40F20522052200F057
:101760003CFB43F203320121204600F036FB2222EB
:101770006021204600F031FB49F625724C212046BD
:1017800000F02BFB0F2000F051FB01222D21204601
:1017900000F023FB01222E21204600F01EFB4FF417
:1017A0004C720321204600F018FB332254212046BE
:1017B00000F013FB40F2011000F038FBEE22602134
:1017C000204600F00AFBC0224FF4C261204600F020
:1017D00004FBC02240F21161204600F0FEFA102204
:1017E0004FF48461204600F0F8FAC02240F2126102
:1017F000204600F0F2FAC02240F21361204600F0C9
:10180000ECFA102240F22241204600F0E6FA51465E
:101810004846FFF783FDE5B1B5F5807F02D0B5F509
:10182000007F74D146F013020121204600F0D5FA62
:1018300002224FF4C461204600F0CFFA4FF4605208
:1018400040F21141204600F0C8FA51464846FFF7E1
:1018500065FD4046BDE8F88F11222821204600F0A2
:10186000BCFA35222921204600F0B7FA35222A2178
:10187000204600F0B2FA40F203320421204600F084
:10188000ACFADB224FF48861204600F0A6FA46F25B
:1018900050320221204600F0A0FA022240F20661F6
:1018A000204600F09AFA022240F20761204600F03A
:1018B00094FA0D22C1E64FF44372DEE74AF6444340
:1018C0009F4219D004D8B7F5FA4F0FD08322D0E643
:1018D0004BF680339F42F9D04FF4EE43C0F2010340
:1018E0009F42F3D1A322C4E63322C2E66322C0E6BC
:1018F0001322BEE64322BCE67322BAE6204648F233
:1019000008124FF4887100F068FA3220F8E6B5F555
:10191000006F15D146F013020121204600F05DFA58
:1019200002224FF4C461204600F057FA4FF4C0522F
:101930004FF48261204600F050FA4FF4C0527FE726
:10194000B5F5407F03D0B5F5806F7FF47EAF0B22F5
:101950001821204600F041FA0B221A21204600F0FF
:101960003CFA4FF4C0524FF482616BE7F8B54BF28A
:10197000084504460F46C2F200052E6856B3012101
:10198000FFF797FC022F064624D0E4B24FF4007212
:101990004FF48461204600F020FA4FF4007240F2C8
:1019A0002241204600F019FA00222D21204600F0A5
:1019B00014FA00222E21204600F00FFA0022052101
:1019C000204600F00AFA00222046114600F005FAEF
:1019D00000232B603046F8BD70B58AB0054605F08F
:1019E000C4FA002867D14BF20C434FF46054002630
:1019F000C2F20003C4F20204AE609D422E616E6129
:101A00000CBF4FF4B8424FF4A8429D42EE61C4F2BD
:101A100000022E622A6042F23272C4F291026A60BF
:101A20004FF00102EA60236B47D143F080034FF48B
:101A3000E05005A92363C4F20200236B079603F06C
:101A400080030193019B80230593122306930223B5
:101A500008930423099304F009FD4FF4E0504FF478
:101A6000807305A9C4F20200059304F0FFFC236C07
:101A700032460F2143F4000348202364236C03F40F
:101A800000030293029B236A43F400032362236A48
:101A900023F40003236204F061F8482004F094F872
:101AA000492032460F2104F059F8492004F08CF8FF
:101AB000284605F021F80AB070BD43F002034FF448
:101AC000806005A92363C4F20200236B079603F02C
:101AD00002030393039B4FF4807305931223069331
:101AE000022308930423099304F0C0FC4FF48060A0
:101AF0004FF4007305A9C4F20200059304F0B6FC8C
:101B0000236C32460F2143F400131F202364236CFF
:101B100003F400130493049B236A43F40013236229
:101B2000236A23F40013236204F018F81F2004F042
:101B30004BF8202032460F2104F010F82020B5E7A2
:101B400030B54FF47A7485B005460294BDF8244050
:101B50000194089C009405F027F9044628B1284612
:101B600005F02AF82846FFF737FF204605B030BDBC
:101B700030B54FF47A7485B005460294BDF8244020
:101B80000194089C009405F030F8044628B12846DA
:101B900005F012F82846FFF71FFF204605B030BDBC
:101BA00030B5054687B010BB4FF460534FF400507A
:101BB0000224C4F20203C4F20200196B41F48071E2
:101BC000196301A91B6B019403F480730093009BBC
:101BD0000123029303930323049304F047FC4FF47F
:101BE00000502A462146C4F2020004F00AFE07B063
:101BF00030BD4FF46053C4F202031A6B42F480729A
:101C000010B51A6388B01B6B044603F48073C0B927
:101C10000093009BE9B942F644630491059103A93E
:101C2000C0F6090333F814300393022306934BF2F2
:101C30005C03C2F2000353F8240004F017FC08B060
:101C400010BD012802D10193019BE3E70293029B9F
:101C5000E0E70129F3D142F64463C0F6090333F803
:101C60001430039300230593022306930023D4B179
:101C7000C1F2210304934BF25C0303A9C2F20003F7
:101C800053F8240004F0F2FB42F63E6300220F21D9
:101C9000C0F6090313F91440204603F05FFF204605
:101CA00003F092FFCBE7C1F21103E3E7FF2808B589
:101CB00003D9C0B200F034FF08BD42F644624BF2D3
:101CC0005C03C0F60902C2F2000332F8101053F8A8
:101CD000200004F08FFD08BD4FF46053C4F20203EE
:101CE00070B51A6B8CB00E460446002859D142F0EC
:101CF00001021A631A6B02F001020192019A1A6B37
:101D000042F002021A631A6B02F002020392039A73
:101D10005A6C42F010025A645B6C03F01003059396
:101D2000059B42F65663022507A9C0F609030895EC
:101D30000A9533F8143007930123099342F652634E
:101D4000C0F6090333F814300B934BF27003C2F260
:101D5000000353F8240004F089FB42F64E6307A900
:101D60000895C0F6090333F81430079342F64A6326
:101D7000C0F6090333F814300B934BF26803C2F238
:101D8000000353F8240004F071FB4BF27803304653
:101D9000C2F2000353F82430336009F0F9F90CB0B3
:101DA00070BD42F004021A631A6B02F00402029240
:101DB000029A1A6B42F004021A631A6B02F00402D0
:101DC0000492049A5A6C42F020025A645B6C03F04D
:101DD00020030693069BA4E770471FB552BA04ACD4
:101DE000022324F8022D0A4601464BF20C400193CF
:101DF0000094C2F20000FFF7BBFE04B010BD1FB597
:101E0000002304AA22F8023D02238DE80C000A46B2
:101E100001464BF20C40C2F20000FFF791FEBDF804
:101E20000E0040BA80B205B05DF804FB03F06FBE4F
:101E30004BF20C40C2F20000FFF7CEBDFFF7F8BF37
:101E40001FB504AC012304F8012D0A4601464BF2EC
:101E50000C4001930094C2F20000FFF789FE04B029
:101E600010BD1FB5002304AA02F8013D01238DE82F
:101E70000C000A4601464BF20C40C2F20000FFF78C
:101E80005FFE9DF80F0005B05DF804FB03F03FBE58
:101E90004BF278030268C2F200031B689A4205D134
:101EA000B0F85810406D401A03F05FBC70471FB582
:101EB0004FF47A748DE81C000A460123D72104F000
:101EC00073FF002004B010BD1FB54FF47A748DE885
:101ED0001C000A460123D72104F087FE002004B02D
:101EE00010BD4BF2A443C2F2000313B51B780446A5
:101EF000CBB172B64DF24C600DF10701C2F2020097
:101F0000FFF7CFF89DF807304BB100234DF24C603E
:101F100021462360C2F20200A380FFF7F6F862B602
:101F2000002002B010BD0120FBE74BF2A443C2F237
:101F3000000313B51B780446CBB172B64DF24C606A
:101F40000DF10701C2F20200FFF7B9F89DF8073062
:101F50004BB100234DF24C6021462360C2F20200D7
:101F6000A380FFF7CDF862B6002002B010BD0120BB
:101F7000FBE74BF2A443C2F2000337B51B780546DA
:101F8000DBB172B66846FFF7ACFF044688B9BDF90D
:101F90000000FEF7E7FFBDF9020085ED000AFEF73D
:101FA000E1FFBDF9040085ED010AFEF7DBFF85EDD9
:101FB000020A62B6204603B030BD0124FAE74BF2B4
:101FC000A443C2F2000337B51B780546DBB172B6F5
:101FD0006846FFF7AAFF044688B9BDF90000FEF77E
:101FE000D4FFBDF9020085ED000AFEF7CEFFBDF972
:101FF000040085ED010AFEF7C8FF85ED020A62B60E
:10200000204603B030BD0124FAE74BF2A443C2F2EC
:10201000000337B51B7805460BB372B64DF24C6022
:102020000DF10301C2F20200FFF757F89DF80330EB
:102030009BB14DF24C60002401A9C2F20200ADF840
:102040000440FFF758F8BDF90400FEF7AAFF204648
:1020500085ED000A62B603B030BD0320FAE7012027
:10206000F9E730B54FF4605489B04FF48065C4F29D
:10207000020403A9C4F20205236B284643F00203BD
:102080002363236B03F002030193019B4FF48073DE
:10209000039312230493012305930223069304233D
:1020A000079304F0E3F94FF4007303A92846039360
:1020B00004F0DCF9236C00220F211F2043F40013ED
:1020C0002364236C03F400130293029B236A43F4FA
:1020D00000132362236A23F40013236203F03EFDFE
:1020E0001F2003F071FD00220F21202003F036FD98
:1020F000202003F069FD09B030BD73B54BF25844A0
:102100004FF4A843C2F20004C4F200032046236047
:1021100004F052FD054618B10124204602B070BDFE
:10212000FFF79FFF42F2327301262046C4F291036B
:102130002561E6606360FF23E561A360636125625A
:1021400004F0DAFC01460028E6D120464DF24C6549
:1021500004F00EFF41F6C963C2F202050DF106015B
:10216000C0F608032846AC602B6041F6AF63C0F6AA
:1021700008036B60FEF7CEFF9DF80630692BCBD1CC
:1021800031462846FEF7CBFF0DF107012846FEF742
:10219000DDFF9DF80740002CF6D14DF24C60012187
:1021A000C2F20200FEF766FF4DF24C600221C2F25D
:1021B0000200FEF703FF4DF24C600421C2F2020060
:1021C000FEF72AFF4DF24C600721C2F20200FEF733
:1021D0000CFF4DF24C600721C2F20200FEF733FF04
:1021E0004BF2A4430122C2F200031A7095E745F6B0
:1021F00004434BF22C50C4F20103C2F200001A68EF
:10220000036022F480321A6006F03ABF45F6244398
:102210004BF2A840C4F20103C2F200001A68036046
:1022200022F480321A6006F02BBF45F604432DE9F4
:10223000F04FC4F2010385B04BF22C5500260091FB
:1022400001271968C2F200054FF4803A4FF0200BC5
:1022500021F480312B604FF480294FF0040819607D
:102260004FF40053802168602B6140232846EA61C7
:102270002B644BF2A8440193009BC2F2000403922A
:10228000696302912B666E612E63AE63EF63AE608D
:10229000AF61C5F844B0C5F848A0EE64C5F85090E9
:1022A0006E65AE65C5F85C8006F0DAFD45F6244043
:1022B000039A019BC4F201000299D0F800E020606B
:1022C0002EF4803EC0F800E02046E2610322236441
:1022D000009B62602366666126636163A663E763B1
:1022E000A7602661A761C4F844B0C4F848A0E664BA
:1022F000C4F850906665A665C4F85C8006F0B0FD31
:102300002A68136843EA0A0313602268136843EAE1
:102310000A03136005B0BDE8F08F38B54DF29C6339
:1023200005460C468AB2C2F20203014634201B68FD
:10233000DB68984778B9B4F5003F4BF22C5029463A
:1023400034BF62084FF6FF72C2F2000092B206F08C
:102350003BFF002038BD012038BD4DF29C63342086
:10236000C2F202031B6810B51B699847044638B9CE
:102370004BF22C50C2F2000006F0A3FE204610BD26
:10238000012010BD4DF29C633420C2F202031B6891
:1023900010B55B699847044638B94BF22C50C2F22D
:1023A000000006F0A1FE204610BD012010BD38B58A
:1023B00005464BF22C50C2F2000006F0B1FE4DF281
:1023C0009C6329463420C2F202031B689B6998472C
:1023D000044630B9012D02D1284603F098FB20466F
:1023E00038BD012038BD08B54DF29C63014634204C
:1023F000C2F202031B681B6A9847003018BF012015
:1024000008BD10B54BF22C54C2F2000422681368C8
:1024100023F4803313602066204606F021FD2268F5
:10242000136843F48033136010BD08B50BF066FCED
:1024300008BD08B50BF06BFC08BD2DE9F0474FF463
:1024400060548AB081464FF40050C4F202044FF049
:10245000020800250326636C0A2705A9C4F20200BE
:1024600043F400034FF0400A6364636C03F4000319
:102470000093009B236B43F480732363236B03F46B
:1024800080730193019B236B43F480732363236B5D
:1024900003F480730293029B236B43F480732363E2
:1024A000236BCDF8188003F4807307950896039387
:1024B000039B80230997059303F0D8FF4FF4005046
:1024C000202305A9CDF81880C4F2020005930795D2
:1024D0000896099703F0CAFF4FF4005005A9CDF8FC
:1024E00014A0C4F20200CDF8188007950896099749
:1024F00003F0BCFF4FF40050102305A9CDF818805D
:10250000C4F20200059307950896099703F0AEFF01
:10251000236BD9F8002043F480032363236B03F477
:1025200080030493049B45F60443C4F201039A42DA
:102530002CD14BF210644FF0C063C2F20004636010
:102540004FF48063C9F86C40204623614FF4006368
:10255000C4F808A063614FF40053E560A3614FF431
:102560008073A662E3614FF40033E56223620423C3
:102570002563636246F27043C4F83890C4F20203E4
:10258000236003F024FC204603F0B8FB00220E2158
:102590003C2003F0E3FA3C2003F016FB0AB0BDE850
:1025A000F08710B504463C2003F01BFB45F60443BE
:1025B0002268C4F201039A4202D1E06E03F007FCE4
:1025C00022684FF4005080211368C4F2020023F403
:1025D0008033136004F059F84FF400502021C4F206
:1025E000020004F052F84FF400504021C4F20200FF
:1025F00004F04BF84FF400501021C4F2020004F034
:1026000044F84FF46053C4F202035A6C22F40002FF
:102610005A6410BD08B5FFF7EAFD4BF22C500021BB
:10262000C2F20000FFF7BDFF08BD10B5A2B00C4616
:1026300001A806F0BAF942F611339C4207D045F2E0
:1026400022639C4203D04AF644439C4211D14FF48A
:10265000801301934FF48003119340F2AD13029362
:1026600002230493132301A80A9305F047FE22B026
:1026700010BD4FF4801301934FF4800311934FF476
:10268000AC730293072304930123ECE72DE9F8438D
:102690004BF22C54164645F604450746C2F2000498
:1026A0008846C4F20105FFF7A2FD3146002220460C
:1026B000FFF7BBFF2046256006F0B3FE014610B9C8
:1026C0002046FFF7BAFE2B684BF22C5025604FF0E6
:1026D000000923F48033C2F200002B60802301251F
:1026E000E66163634FF40053C4F804902361402310
:1026F000C4F8149023642023C4F8309063644FF42A
:102700008033C4F83890A3644FF48023E5632365D5
:102710000423C4F80890E3650F23A5612366C4F879
:102720004C90C4F85490C4F8589006F099FB226875
:102730004BF22C0434201368C2F2000443F48033BB
:102740001360A368984748F69413984210D1E36A3F
:10275000342098474DF29C6342463946C2F2020348
:1027600034201C6033462468A0474846BDE8F883FF
:102770002846BDE8F88338B54BF22C54014605468F
:102780000022C2F200042046FFF74FFF22682046D5
:10279000136823F480331360E56106F061FB22685F
:1027A000136843F48033136038BD8AB201464BF29C
:1027B000A84008B5C2F2000006F068FD002008BD80
:1027C00038B505464BF2A840C2F2000006F0A8FC5E
:1027D0004DF29C6329463420C2F202031B689B69B8
:1027E0009847044630B9012D02D1284603F08FF9ED
:1027F000204638BD012038BD08B50DF09CFC08BD51
:1028000008B50DF09FFC08BD4BF22C5038B5C2F254
:10281000000006F006FE05464BF2A84005F0EF0565
:10282000C2F2000006F0FDFD022D044601D10DF0BC
:1028300037FB04F0DF04022C01D10DF08AFC38BD17
:102840002DE9F0414FF460548AB006464FF4C05071
:10285000C4F20204022700254FF48068636C05A9C6
:10286000C4F2020043F400036364636C03F40003E6
:102870000193019B236B43F040032363236BCDF84B
:10288000148003F04003069707950293029B0A23E6
:102890000897099303F0EAFD236B4FF4E05005A974
:1028A00043F08003C4F202002363236B069503F018
:1028B0008003079508970393039B4FF40043059308
:1028C00003F0D4FD236B326843F480032363236B4E
:1028D00003F480030493049B45F62443C4F20103EC
:1028E0009A4226D14BF2B0544FF40063C2F2000476
:1028F00063614FF4005334672046A3614FF4807343
:102900006560E3614FF40033A56023620323E56053
:10291000A36246F2B843C4F81080C4F202036562B1
:10292000E56225632360A66303F051FA204603F0B5
:10293000E5F900220F21462003F010F9462003F0AC
:1029400043F900220F21282003F008F9282003F082
:102950003BF90AB0BDE8F081F8B54BF2A8440D464A
:102960000746FFF753FCC2F2000400222946204626
:10297000FFF75BFE45F624432046C4F201032360C3
:1029800006F04FFD064638B901462046FFF755FDD3
:1029900031462046FFF754FF4BF22C04B7F5007F79
:1029A0002A464FF00100C2F200040CBF0A210521A3
:1029B000FFF73BFCA3683420984748F694139842ED
:1029C0000FD1E36A342098474DF29C636422394664
:1029D000C2F2020334201C602B462468A04700206A
:1029E000F8BD0120F8BD01464FF40070FFF7B4BFF9
:1029F000B0F5007F70B50E46154601D0012070BDC0
:102A00004BF2A844FFF702FCFFF7F1FB2946C2F2A4
:102A1000000400222046FFF708FE45F62443204626
:102A2000C4F20103236006F0FCFC014610B9204605
:102A3000FFF706FF4BF22C5445F60443C2F20004A4
:102A4000C4F201032046236006F0EBFC014610B9F6
:102A50002046FFF7F2FC4BF22C042A460A21002004
:102A6000C2F20004FFF7E1FB3420A368984748F660
:102A700094139842C2D1E36A342098474DF29C6384
:102A8000642246F40071C2F2020334201C602B461B
:102A90002468A047002070BD37B572B64FF4C0500F
:102AA000002280214DF25864C4F2020003F0A9FE16
:102AB00000224FF40041C2F202041046C4F20200A8
:102AC00003F09FFE4DF2A060642301220DF1070187
:102AD000C2F2020007F0E4FF002001224FF400419F
:102AE000C4F2020003F08DFE4DF2A06064230122C7
:102AF0002146C2F2020007F0D3FF237805464FF4C7
:102B0000C050DB4301228021C4F20200237003F095
:102B100078FE1DB962B6284603B030BD0125FAE73C
:102B200010B50446FFF7B8FF4DF25863C2F2020336
:102B30001B781C4214BF0120002010BD08B5FFF710
:102B4000ABFF4DF25863C2F20203187808BD4FF490
:102B500060534FF4C050C4F20203C4F202001A6C76
:102B600042F48042F0B51A648BB01A6C002501273C
:102B700005A902F480422C464FF480760092C4F2FC
:102B80000204009A1A6B42F040021A631A6B02F0B8
:102B900040020192019A1A6B42F480721A631A6B16
:102BA00002F480720292029A1A6B42F002021A63D5
:102BB0001A6B02F002020392039A1A6B42F00102AE
:102BC0001A631B6B069703F0010307950493049B9C
:102BD000802305930323089303F048FC4FF400433C
:102BE00005A92046059303F041FC05A9204605965A
:102BF00003F03CFC3A4631462046052403F001FE32
:102C00004FF40050022305A9C4F202000795059372
:102C10000693099403F02AFC4FF480604FF480433C
:102C200005A90994C4F20200059303F01FFC2A468B
:102C30000F21242002F092FF242002F0C5FF0BB0E8
:102C4000F0BD38B54DF2A0644FF46053C2F20204F7
:102C5000C4F200032046236007F055FC054608B186
:102C6000012038BDFFF773FF382320466561E3611B
:102C70004FF4E0632561E3604FF48273A560636005
:102C80004FF400732562A36107236562A562E362C6
:102C900007F0CCFB04460028E2D14FF4C0500122DB
:102CA0008021C4F2020003F0ACFD002001224FF4A9
:102CB0000041C4F2020003F0A4FD204638BD00002C
:102CC0002DE9F04F0C1A91B04FF6FF76BDF8687001
:102CD0000B9284EAE472FD1AA2EBE472002D04B2B6
:102CE00012B2B8BF6D42814234BF31460121039216
:102CF000104632460E9129B29F4228BF01228842D7
:102D00000F92BDF86C200C921AB2C0F2C380034639
:102D100000280E98B8BF0133099000205B100E9078
:102D200004930A90039B002BC0F296804BF27063D1
:102D300089B24DF204703425C2F200030891C2F248
:102D400002004BF274611B68C2F2000105FB030B29
:102D5000002003EB43030590104601EB830321465B
:102D60000D9389B20B9A83B20C98541A4FF6FF7ADE
:102D7000C71A0691002C0793B8BF644291428CBFDA
:102D8000D4464FF0010C002F24B2B8BF7F428342DB
:102D900098BF4FF0010A3FB2BC4260DB002C2246D4
:102DA000E6464FF0000CB8BF621CE0465210002C03
:102DB00039DB0D98BFB20025E1460068009786B266
:102DC000019602961EE0019F46F8207000989C46EE
:102DD000534402440846494496B232B2361BA242DA
:102DE00003DB32B288B21FFA83FC013500EB0E011F
:102DF000C44428B209B284420FFA8CFC89B212DBB7
:102E00001FFA8CF3DBF84860C1F5FF3CDBF860008B
:102E1000022EDBF85C6000FB13C0D4D1BDF8087053
:102E200026F81070D2E7049B08990B4403999AB2D4
:102E300013B29942049320DD079B06990998059ADD
:102E400001440A980132034409B2059212B21BB23E
:102E50001846039B934284DA11B0BDE8F08F002F2F
:102E60003A462046D046B8BF7A1C4FF0000A3C468E
:102E7000074642F34F02D64699E70E98521A069B30
:102E800012B203440F9804921946079B034489B277
:102E90009BB2D3E700290B460F984FF00005B8BF4F
:102EA0004B1C0A9043F34F0303980F95039101467F
:102EB0000493099536E700BF4BF270614DF204723E
:102EC0003420C2F20001C2F202020B6800FB0323AD
:102ED000186E70474BF270614DF204723420C2F2EA
:102EE0000001C2F202020B6800FB0323586E704718
:102EF0002DE9F0414BF270664DF204754FF0340845
:102F00008EB0C2F20006C2F2020504460A9132688F
:102F100000234FF0020E4FF0FF0C08FB02524FF45B
:102F2000C06728460726516E156E2246049104EBB1
:102F300044040C9101A90193A40002950B954FF054
:102F40007F45039307938DF834308DF835308DF835
:102F50003630CDF814E0CDF818C00897099604F083
:102F60007FF94BF274634BF264324FF0FF30C2F2E0
:102F70000003C2F2000219191D5148608A600EB0A8
:102F8000BDE8F0814BF27063C2F200031860704735
:102F900038B54DF2047405460246C2F202042046DA
:102FA00004F08CF929462046BDE8384004F0AAB95F
:102FB0004BF270634BF27462C2F20003C2F2000281
:102FC0001B6803EB430342F8230070474BF2706326
:102FD0004BF27462C2F20003C2F200021B6803EB00
:102FE000430352F8230070474BF270624BF2746354
:102FF000C2F20002C2F20003126802EB420203EBCB
:1030000082035860704700BF4BF270624BF27463EA
:10301000C2F20002C2F20003126802EB420203EBAA
:1030200082039860704700BF4BF270624BF274638A
:10303000C2F20002C2F20003126802EB420203EB8A
:1030400082039868704700BF4BF270614DF20472C2
:103050003423C2F20001C2F202022DE9F0430E68ED
:103060004BF28C6400214FF4304503FB0623C2F27F
:103070000004C4F202054FF4403E9A6C83B0074648
:103080002046022A2560C4F804E018BF0A46E16021
:10309000DD6DD3F86080D3F86490A26003F097F8F8
:1030A00010B103B0BDE8F0833146204603F078F953
:1030B0000028F6D1CDF8009043462A4639462046EE
:1030C00003F0B3F80028ECD120460A2103B0BDE894
:1030D000F04303F0C6B800BF2DE9F0434DF204758C
:1030E0004BF28C6400224FF43041C2F202054BF2E5
:1030F0007066C2F200044FF44037AB6CC4F20201B8
:10310000C2F2000683B0022B2046D5F8608018BFBB
:103110001346D5F86490E260A360326084E88200D0
:10312000EF6D03F054F800B3EB6F4FF430424BF205
:103130008C600127022BC4F202024FF44031C2F22C
:10314000000018BF0023226000223760A360616086
:10315000E260D5F89460D5F89040D5F8985003F027
:1031600036F8C0B103B0BDE8F0830146204603F055
:1031700017F90028D8D1CDF8009043463A464FF0D1
:10318000FF31204603F051F80028CDD10A21204616
:1031900003F067F8C8E74BF28C603946C2F20000D2
:1031A00003F0FEF80028DDD14BF28C600095334629
:1031B0002246C2F200004FF0FF3103F036F800283B
:1031C000D0D14BF28C600A21C2F2000003B0BDE8FE
:1031D000F04303F046B800BF2DE9F04F4BF27064A6
:1031E00087B04BF27463203AC2F200040590C2F239
:1031F00000030391206800EB400C03EB8C0CDCF81F
:1032000008309988DC880D46019126460294CC1D31
:10321000196806FB02F84FEAE40AC5EBCA030AFB89
:1032200008F8DBB20493002E5FD04DF20473342211
:1032300088444FF00009C2F2020302FB0030039BF6
:10324000BAF1010F03EB0905ADB25CD0BAF1020F80
:103250004ED198F8003098F8014044EA0324019BCD
:10326000002B3CD05A1E049E19464FF0010E3244EA
:10327000059B561A15E0DCF8007002291FFA87FB3F
:103280001AD0016E013AC76D01FB05F1B242C1F5DA
:10329000FF31A1EB030103F1010347F821B09BB219
:1032A0001DD00EFA02F12142816CE4D1DCF80470E9
:1032B00002291FFA87FBE4D1C16D5F46013A0091F4
:1032C000016EB24201FB05FB0099CBF5FF3BABEB76
:1032D000030B03F1010321F81B709BB2E1D109F14B
:1032E0000109029BD0444B45A9D107B0BDE8F08F3E
:1032F00098F8014098F80020240298F8023044EA37
:1033000002441C43ABE798F80040A8E72DE9F843D6
:103310001646127804468846002A55D0711C8D1B2B
:1033200011F8010B0028FAD14BF2706E4BF2746168
:103330004DF204703427C2F2000EC2F20001C2F254
:103340000200012BDEF8009009EB490E07FB09078C
:1033500001EB8E01D7F860E08F68B7F804C0BEFBC0
:10336000FCF12AD0022B22D023B21FFA8EFE002BB2
:10337000D8BF0124F44518D8BAB13423354603FB2D
:10338000090900E08AB120464146FFF725FF15F8FC
:10339000012FB888AB1BD9F8601004449BB2A4B2CB
:1033A00000FB13139BB28342ECD2BDE8F883491BA8
:1033B00011FB0CF10C1BA4B2D6E7491B0CFB01F16D
:1033C00004EB5104A4B2CFE71546ADE72DE9F8436D
:1033D0004BF270644BF274620B46C2F20004C2F20C
:1033E0000002246804EB440502EB8502D2F8088051
:1033F000B8F8067017FB00F7BFB213F8012B002ACC
:10340000FBD14DF204793420B8F80430C2F202093D
:103410000A7800FB0499B9F86000984218D3BAB151
:103420000E460D46012400E092B120463946FFF7D2
:10343000D3FE15F8012FB8F80400AB1BD9F86010C3
:1034400004449BB2A4B200FB13139BB28342EBD2A1
:10345000BDE8F8832DE9F0414BF270674DF204743A
:10346000342682B0C2F20007C2F2020483183F6819
:1034700006FB0746D6F848E0346EBEF1020F40D096
:1034800004FB01F04BF2746CF56D07EB4701C0F5DE
:10349000FF30C2F2000C561C4FF0000EC01A5CF850
:1034A000218005EB80054BF28C644FF430434FF4E0
:1034B00040310022C2F20004C4F202032046C4F8E4
:1034C00008E06160E260236002F081FE10B102B0AA
:1034D000BDE8F0813946204602F062FF0028F6D1AF
:1034E000012033462A4641460090204602F09DFEC8
:1034F0000028ECD120460A2102B0BDE8F04102F0DC
:10350000B0BE04FB01F0F56D561C4BF27462C0F5C1
:10351000FF3007EB4701C2F20002C01A52F82180C7
:1035200005EB4005BFE700BF2DE9F04F171A4FF636
:10353000FF75A3EB010E85B08B4234BF2B460123F0
:10354000824234BF2A460122002F09B204B2B8BF1A
:103550007F42BEF1000F0191B8BFCEF1000E3FB225
:103560000FFA8EFE77455FDB002F3D4690464FF009
:103570000002B8BF7D1C10466D10002F51DB4BF2CE
:10358000706C4BF274661FFA8EFB4DF20479C2F236
:10359000000CC2F200063421C2F20209DCF800E09D
:1035A0004FF0000C0EEB4E0A01FB0E9E56F82A60FF
:1035B0009246B1B21E4602910391019901901DE01D
:1035C000029842F823005D4404EB0A028B191FFAAB
:1035D00085F90FFA89F5A9EB0709AF4203DC0FFA69
:1035E00089F594B299B2019B0CF1010C4444194441
:1035F0000FFA8CF324B2BB4209B212DCDEF8482089
:10360000A4B289B2DEF86030C4F5FF39022ADEF8D0
:103610005C2003FB1193D3D1BDF80C0022F81300FA
:10362000D1E705B0BDE8F08FBEF1000F75463E460C
:103630001846B8BF0EF1010500237746B64645F39C
:103640004F05984699E700BF2DE9F04F0E464BF223
:103650007069054693461E4487B0C2F200094DF2D8
:1036600004789A46FFF7F6FE5A46B1B22846C2F2EF
:103670000208FFF7EFFED9F80010342202FB0182A6
:10368000906C136E022800F08C80C5F5FF30D46D6D
:103690004BF274670AF1010A06FB130201EB4100C9
:1036A000C2F20007013B04EB8202059257F820208A
:1036B000002004924BF28C644FF430424FF4403EB1
:1036C0000391C2F20004C4F20202A0602046E3604B
:1036D00084E8044002F07BFD039970B33423D9F8E9
:1036E00000905D4403FB0988ADB2D8F84830C5F5B9
:1036F000FF35D8F86010022BD8F85C0067D009EBD2
:10370000490306FB1155013957F8237000EB850575
:1037100000234FF430424BF28C60A3604FF44033EF
:10372000C4F20202C2F20000E16084E80C0002F080
:103730004EFDB0B107B0BDE8F08F204602F030FE7C
:103740000028CBD1CDF800A00123059A204604998A
:1037500002F06BFD0028C1D10A21204602F081FD54
:10376000BCE74BF28C604946C2F2000002F018FE42
:103770000028DFD14BF28C60CDF800A02A463946F4
:10378000C2F20000012302F050FD0028D2D14BF21A
:103790008C600A21C2F2000007B0BDE8F04F02F0D1
:1037A00060BDC5F5FF344BF27467D2F85CE001EB05
:1037B000410206FB1344C2F200070AF1010A013B71
:1037C0000EEB440457F822200594049272E706FB9E
:1037D000115609EB4902013957F8227000EB4605F2
:1037E00097E700BF2DE9F04F4BF270654BF2746321
:1037F0004DF204748346C2F20005C2F20003560083
:103800004FF0340E2D689246C2F2020487B005EBE9
:1038100045000F460EFB0542C6F1030153F8203068
:103820001FFA8AF94FF0000E02919EB2019704969A
:10383000019B1FFA8EF8906CA3EB09040BEB0803B5
:103840000228A4B29BB200F08A80106EC3F5FF3349
:10385000D56DABEB080100FB143089B245F8206050
:10386000906C022800F0D680C1F5FF31D06D0BEBD3
:1038700009050F460391116EADB201FB1471019C55
:1038800040F82160A4EB080C916C1FFA8CFC022913
:1038900000F0DD80146EC5F5FF35D06DABEB09018E
:1038A00004FB1C5489B240F82460906C022800F09C
:1038B000C780106EC1F5FF31D76D00FB1C10019C55
:1038C00047F820604C44906CA4B2176E0228D06D6B
:1038D00000F0B48007FB143340F82360936C022B94
:1038E00000F0A680176ED06DBC46039F019B0CFBB9
:1038F0001474434440F82460906C9BB2022800F09A
:103900009380106ED46D00FB135044F82060906CCF
:10391000146E0228D06D00F0848004FB131340F86D
:103920002360029B002B0EDBAEEB0A010A330AF187
:10393000FF3A0EF1010E03EB8103F24502930BD324
:103940001FFA8AF974E7063303EB8E030EF1010EBA
:10395000F2450293BFF46CAF07B0BDE8F08F116E73
:10396000C3F5FF33D06D0D460591ABEB0801BDF8F3
:10397000107005FB04F489B21D1B20F81570C4F506
:10398000FF34019F0BEB0905641AC1F5FF31A7EB6A
:10399000080CADB20391BDF810101FFA8CFC20F892
:1039A0001410059901FB0CFCC5F5FF35ABEB0901C3
:1039B000BDF81070A5EB0C0489B220F81470C1F5A5
:1039C000FF31019CBDF810704C44A1EB0C0CA4B26B
:1039D00020F81C70059F07FB04F4BDF810701B1B3A
:1039E00020F81370039BBDF810701C1B019B43440F
:1039F00020F81470059C9BB204FB03F423462C1B97
:103A0000BDF8105020F81450CB1ABDF8101020F853
:103A1000131086E7106E05460590D06D05FB04F483
:103A2000ADE704FB03F3EFE7146ED06D0594E3E715
:103A3000136ED06D059303FB04F4D3E70597CAE733
:103A4000106E04460590D06D04FB0CFCB7E7116EB8
:103A5000D06D0591A6E700BF012940F2B0804FF676
:103A6000FF7302462DE9F04FC3F6FF730C4605467F
:103A700087B02344418832F8040B05EB8306029299
:103A800035F8232073883426FFF74EFD631E4BF272
:103A900070604BF274629BB24DF20471C2F200008E
:103AA000C2F200020133C2F20201006805EB830397
:103AB00000EB400406FB001B049302EB8403049A12
:103AC0000593029B934267D0184633F8043C4FF6A7
:103AD000FF7E078830F8022CFC1A4188BB428CBF5D
:103AE00077460127A1EB020A002CB8BF64428A4244
:103AF00098BF4FF0010EBAF1000F24B2B8BFCAF15F
:103B0000000A0FFA8AFA544549DB002C2146B846D0
:103B10004FF00007B8BF611CBC464910002C35DBD4
:103B200005981FFA8AFA0025B946006886B2019600
:103B300003961AE0019F46F8207051441746184634
:103B400072448EB24B4431B2361BA14202DB31B219
:103B500098B297B2013500EB0803674428B21BB254
:103B600084423FB29BB211DBBAB2DBF84860C3F5C6
:103B7000FF37DBF86000022EDBF85C6000FB1270A0
:103B8000D8D1BDF80C7026F81070D6E7029B049AC5
:103B900004339342029397D107B0BDE8F08FBAF196
:103BA000000F51462046F446B8BF0AF101014FF01C
:103BB000000E5446824641F34F01F046AEE770478F
:103BC0002DE9F04F4BF270654BF2746407EE902ACA
:103BD0004DF20476C2F20005C2F20004F8EEE76A84
:103BE00007EE903A2D681FFA80F8F8EEE77AC2F2F5
:103BF000020605EB45074FF0340EC2F1010283B017
:103C000054F827000EFB056586EEA77A5B421FFA83
:103C100080FC4FF0000E1FFA81F95600E3460DE0DC
:103C20000EF1010E06EB4E021EEB030F02F1010234
:103C30007FD0B34253DB002B164657DC07EE90EAE9
:103C400099B2A86CF8EEE77A01EB09070228BFB237
:103C500067EE877AFCEEE77ACDED017ABDF80420B5
:103C6000A8EB0204A4B2019443D02C6E4244E86D48
:103C700004FB07FA019C92B2CAF5FF3AAAEB040AC8
:103C800040F82AC0A86C022857D02C6EA9EB01017D
:103C9000E86D04FB07F789B2C7F5FF37BF1A40F894
:103CA00027C0A86C022850D0286EEF6D00FB01F0F1
:103CB000C0F5FF30821A47F822C0AA6CE86D022ACC
:103CC0002A6E02FB01F12DD0C1F5FF31019A8C1A49
:103CD00040F824C0B645A3DAB3423246ABDA01332A
:103CE00002EB4306002B06F10106A7DD03B0BDE899
:103CF000F08FD5F860A04244E86D0AFB07F792B256
:103D0000C7F5FF373C1B20F814B0A9EB0101BF1A1F
:103D100089B220F817B00AFB01F1C2F5FF32571A39
:103D200020F817B0019AC2F5FF34621A20F812B0D9
:103D3000D0E7B342D3DB00267BE7D5F860A0E86D7F
:103D40000AFB07F7C7F5FF37DFE7E86DD5F860A096
:103D5000E1E700BF70B44BF270654DF20474342695
:103D600092B2C2F20005C2F202042B6806FB0343C2
:103D70009C6C022C1C6EDB6D04FB0101C1F5FF3154
:103D800003D043F8212070BC704723F8112070BC89
:103D9000704700BF2DE9F04F4BF2706B4DF2047885
:103DA00034265489C2F2000BC2F202089589A4B2EB
:103DB000DBF800E089B044EA0544D2F8129006FB33
:103DC0000E86D2F816A0958BB36C022B00F0D9802A
:103DD000C0F5FF30376E5144F66DA0EB090007FBCC
:103DE000110006EB8007A5F12001072940F2C680EB
:103DF000A5F1100107298CBF012102218C46E90899
:103E00000AF1FF3509FB01F101FB05451544BAF143
:103E1000000F00F083804FF6FF724FF430404BF2FA
:103E20008C644942C7F6FF72C4F20200CDF810B0AC
:103E3000C2F200044A440291039000265200E34675
:103E400005920232069211E0049B0136D3F800E09D
:103E50003423B24503FB0E831B6E07EB8307029BE3
:103E60001D445BD0342303FB0E839B6C022B2AD0B2
:103E70004FF4803100234BF28C60FF226160039984
:103E8000C2F20000C4F82CB02363A3626263216015
:103E9000A360E36002F09BF90028D5D10121204600
:103EA00002F07EFA0028CFD101204B463A4629463F
:103EB0000090204602F0B9F90028C5D10A21204619
:103EC00002F0CFF9C0E7059BF818B9F1000F1AD03E
:103ED000BBF1020F25D0BBF1010F32D0002115F844
:103EE000213001319A1C03F1010C03338945D2B210
:103EF0005FFA8CFC4FEA421202EBCC2252FA83F3B7
:103F000020F80239EBD1342303FB0E831B6EA7EBA1
:103F100043070136029BB2451D44A3D109B0BDE859
:103F2000F08F069BE9182B4633F8022B8B4220F8C2
:103F30000229F9D1342303FB0E831B6EA7EB430741
:103F4000E7E7BB1E079705F1030C1F461CF8033C6F
:103F50000CF1030C991CDA02013352FA81F2DBB244
:103F600002EB431320F802398742EFD13423079F35
:103F700003FB0E831B6EA7EB4307CAE700218C46A9
:103F80003DE7D6F860C0F76D0CFB01F1C1F5FF31DC
:103F9000091AA1EB090107EB410724E72DE9F043DA
:103FA0004BF270644DF2047E4FF0340C1746C2F2AF
:103FB0000004C2F2020E1D464BF27466246883B000
:103FC000C2F2000629440CFB04E204EB440E936C9D
:103FD00056F82E60022B3BD0D2F860E0384401390D
:103FE000D2F85C900023AEEB07020EFB0101C1F595
:103FF000FF3109EB81094BF28C684FF430414FF4EB
:10400000403EC2F20008C4F202014046C8F808303F
:10401000C8F80C2088E8024002F0D9F810B103B0CB
:10402000BDE8F0832146404602F0BAF90028F6D1F7
:1040300000953B464A463146404602F0F6F80028D5
:10404000EDD140460A2103B0BDE8F04302F009B9C2
:1040500000EB070E0139106ED2F85C9000FB01E115
:10406000C21BC1F5FF3109EB4109C4E72DE9F84F47
:1040700056008146884600241546C6F1030675B9E8
:1040800034BB002EA4EB050206F10A033DDB013D23
:10409000013403EB8206A542F1D2BDE8F88FAFB23E
:1040A0001FFA84FAA9EB070B7F0008EB0A011FFA3D
:1040B0008BFBBFB2584689B23A46FFF7CBF9A8EB63
:1040C0000A013A46584689B2FFF7C4F9002CD8D005
:1040D000A7B21FFA85FAA9EB070B7F00A8EB0A012C
:1040E0001FFA8BFBBFB2584689B23A46FFF7B2F9C6
:1040F00008EB0A013A46584689B2FFF7ABF9002EA1
:10410000A4EB050206F10A03C1DA063606EB8406C3
:104110000134AC42B3D9BDE8F88F00BF2DE9F04FB0
:10412000038885B0428801290293039270DD9C4682
:104130001C4615469646012300EB830230F92360A6
:104140000133B2F902201FFA86F81BB297B2A642D9
:10415000B8BF44466645C8BFC4467245B8BFBE46F0
:10416000AA42C8BF3D468B42E6DB01294DD98B1ED2
:1041700064447544061D9BB2C4F34F04C5F34F0558
:104180000233A24600EB8307BB4636F8049C524636
:10419000B6F80080043636F8064C484636F8027CFD
:1041A0004146234601950097FEF78AFD2346424685
:1041B000484651468DE8A000FEF782FD0194009725
:1041C0004A4641462B465046FEF77AFD5E45DCD115
:1041D000B946029E039F5246414630463B460195F2
:1041E000CDF80090FEF76CFD3B4642465146304606
:1041F0008DE82002FEF764FD0197CDF800902B4674
:10420000324641465046FEF75BFD05B0BDE8F08FF3
:1042100096461C4615469C46A7E700BF07EE902A27
:10422000C2F1010280B2B8EEE77A07EE903A89B2A5
:10423000F8EEE77A2DE9F04F4BF274674BF27065B8
:104240004DF20476C3F1000A4BF274634BF28C69B1
:10425000C2F202060024C2F20005C2F20003C2F25A
:1042600000099B462DED028B8BB087EE278A0697BF
:1042700057004FF43042059609902646C4F20202D8
:1042800003910495029210E0013607EB460316EB0A
:104290000A0F03F1010300F0EC80BA45C0F28880F8
:1042A000BAF1000F1F4600F38D8007EE906A049B61
:1042B00034221FFA8AF5F8EEE77A1968059B67EE53
:1042C000887A02FB0132039BD2F848E0FCEEE77AE1
:1042D000E818099BBEF1020FD2F8608080B2CDEDE4
:1042E000067ABDF8184008FB00F8D26D4FEA440C7E
:1042F000A3EB04040CF10103A4B29BB21C4403F130
:104300000103079301EB410300F0A980C8F5FF38D2
:104310005BF823304FF0000EA8EB0408089302EB83
:10432000880800224BF28C604FF440330691C9F8A4
:104330000C20C2F20000029AC9F808E089E80C00DB
:1043400001F045FF0699002841D0049B3421D3F8A1
:104350000080039B5D1B059B01FB0831ADB28A6C9D
:104360000B6E022A6ED003FB05F308EB4802C96D01
:10437000C3F5FF335BF8225000221C1B01EB8404C1
:10438000C9F8082000224BF28C604FF44033C9F882
:104390000C20029AC2F2000089E80C0001F017FF1D
:1043A00090B3BE42BFF670AFBA453B46BFF678AF9A
:1043B0000AF1010A03EB4A07BAF1000F07F10107FE
:1043C0007FF773AF0BB0BDEC028BBDE8F08F4BF203
:1043D0008C60C2F2000001F0E3FF0028B5D101209B
:1043E0004246089900904BF28C60079BC2F2000095
:1043F00001F01BFF0028A8D14BF28C600A21C2F209
:10440000000001F02EFFA0E74BF28C604146C2F2A3
:10441000000001F0C5FF0028C3D10120079B224600
:10442000294600904BF28C60C2F2000001F0FDFEC4
:104430000028B6D14BF28C600A21C2F2000001F0D4
:1044400010FFAEE703FB05F308EB4800C96DC3F5A9
:10445000FF335BF820501C1B01EB440490E7C8F5C8
:10446000FF385BF82330A8EB0408089302EB4808F8
:1044700057E7BA459CDB00270FE700BF4FF46053B6
:104480004FF48050C4F20203C4F202005A6C42F0AE
:1044900080622DE9F0415A648EB05A6C10264FF0BC
:1044A000000E022402F080620E2509A94FF4005785
:1044B00000924FF48058009AC4F202071A6B42F43B
:1044C00000021A631A6B02F400020192019A1A6B3D
:1044D00032431A631A6B32400292029A1A6B42F00C
:1044E00040021A631A6B02F040020392039A1A6B9D
:1044F00042F480721A631A6B02F480720492049A76
:104500001A6B42F400721A631A6B02F4007205927D
:10451000059A1A6B42F480621A631A6B02F4806285
:104520000692069A1A6B42F480721A631A6B02F4AE
:1045300080720792079A1A6B42F480621A631B6BAF
:10454000CDF82CE003F4806309960A944FF42056CA
:1045500008930C94C4F20206089B0D9501F086FFA7
:104560004FF4C050092309A90A94C4F202000D9324
:10457000CDF8248001F07AFF4FF46643384609A94C
:104580000A9409930D9501F071FF4FF410504EF607
:10459000FF7309A90A94C4F2020009930D9501F072
:1045A00065FFF723304609A90A94012409930D9564
:1045B00001F05CFF384609A9CDF824800A9401F087
:1045C00055FF0823304609A90A94099301F04EFFCC
:1045D0000EB0BDE8F08100BF4BF2CC6305214FF473
:1045E0008032C2F2000330B40825C0241846D961D5
:1045F0001D605C61DA6230BC03F080BEF8B54DF23C
:104600000474282309203521C2F2020440F21D124D
:1046100040F215250B27636140F21B1640F235234B
:10462000A061E16120460021656222634FF4F075CC
:10463000E3622762A662FFF7CFFF4FF4D0424FF448
:10464000887100232046C4F201022566616622605B
:1046500084F8343084F8353084F836306360A360F1
:10466000E360236102F06CFE18B901462046FFF7B3
:1046700005FF4DF20470C2F2020002F072FD4FF429
:10468000005001224FF48051C4F2020002F0B9F848
:104690004FF4205001220821C4F2020002F0B1F8C8
:1046A00001F000F84BF270624BF274634BF264312C
:1046B000C2F200020020C2F20003C2F2000112683E
:1046C00002EB420203EB82039960F8BDFEE700BFF4
:1046D0004FF4605300225A20C4F20203114610B571
:1046E0001C6B82B044F400041C631B6B03F40003D6
:1046F0000193019B01F032FA5A2001F065FA02B0F1
:1047000010BD00BF1FB54FF47A748DE81C0041F056
:10471000800201233D2102F047FB002004B010BDC0
:104720001FB54FF47A748DE81C0041F0800201231C
:104730003D2102F05AFA002004B010BD4BF29C73E8
:10474000C2F2000330B51B7885B0054673B372B66C
:104750004DF2AC700DF10701C2F20200FCF79BFBB9
:104760009DF8073003B34DF2AC70002402A9C2F2E9
:1047700002000294ADF80C40FCF79BFBBDF9080069
:10478000FCF7EBFABDF90A0085ED000AFCF7E5FA43
:10479000BDF90C0085ED010AFCF7DFFA204685ED36
:1047A000020A62B605B030BD0320FAE70120F9E73E
:1047B0004BF29C73C2F2000337B51B7805460BB36E
:1047C00072B64DF2AC700DF10301C2F20200FCF7BB
:1047D00062FB9DF803309BB14DF2AC70002401A93F
:1047E000C2F20200ADF80440FCF768FBBDF904001A
:1047F000FCF7BCFA204685ED000A62B603B030BD76
:104800000320FAE70120F9E770B54FF4605488B04F
:104810004FF480650226C4F2020403A9C4F2020523
:10482000236B284643F002032363236B069603F0B1
:1048300002030193019B4FF48073039312230493AB
:10484000012305930423079301F010FE4FF4007336
:1048500003A928460025039301F008FE40234FF4E6
:10486000E05003A9059503932B46C4F20200069677
:10487000C1F21103049301F0F9FD236C2A460F21C4
:104880001F2043F400132364236C03F400130293EA
:10489000029B236A43F400132362236A23F4001368
:1048A000236201F05BF91F2001F08EF92A460F21E7
:1048B000202001F053F9202001F086F92A46FF213B
:1048C000172001F04BF9172001F07EF908B070BDF8
:1048D00073B54BF250744FF4A846C2F20004C4F210
:1048E00000062046266002F067F9054618B101244B
:1048F000204602B070BDFFF787FF42F23273266098
:104900000126C4F291032046E6606360FF2325611F
:10491000A3606361E561256202F0EEF80028E6D14C
:104920004DF2AC7544F221730DF10601C2F202059D
:10493000C0F608032B6044F205732846AC60C0F64D
:1049400008036B60FCF7BFFA9DF80630402BCED110
:1049500031462846FCF7BCFA0DF107012846FCF762
:10496000CEFA9DF80740002CF6D14DF2AC70012133
:10497000C2F20200FCF778FA4DF2AC700321C2F2E9
:104980000200FCF715FA4DF2AC700121C2F20200F0
:10499000FCF753FA4DF2AC700121C2F20200FCF7B1
:1049A0001EFA4DF2AC700121C2F20200FCF72EFAA1
:1049B0004DF2AC702146C2F20200FCF7E2F94DF272
:1049C000AC700121C2F20200FCF7A7FA4BF29C7313
:1049D0000122C2F200031A708AE74BF60403C2F206
:1049E000000337B51B7805460C46C3B172B64DF2CD
:1049F000BC70C2F20200FBF7F8FE0028F7D14DF2BE
:104A0000BC7001AB2A462146C2F20200FCF74AF80C
:104A1000002814BF0020032062B603B030BD00237D
:104A2000036003200B60F8E74FF46053C4F2020305
:104A30001A6C42F48042F0B51A648BB01A6C0024F0
:104A40004FF48076012702F48042254605A90092A2
:104A5000C4F20205009A1A6B284642F001021A635A
:104A60001A6B02F001020192019A1A6B42F48072F1
:104A70001A631A6B02F480720292029A1A6B42F065
:104A800002021A631A6B02F002020392039A1A6B73
:104A900042F002021A631B6B059603F002030697AD
:104AA00007940493049B0323089301F0DFFC3A4628
:104AB000314628464FF4806501F0A3FE4FF40050C4
:104AC0000223052605A9C4F20205C4F202000593DB
:104AD00006930794099601F0C9FC4FF4804305A999
:104AE00028460996059301F0C1FC4FF4004305A93F
:104AF00028460996059301F0B9FC22460F2124208F
:104B000001F02CF8242001F05FF80BB0F0BDF8B5EF
:104B10004BF2A0744FF460534DF2BC754DF2B87770
:104B2000C2F20004C4F20003C2F20205C2F202079C
:104B30002360002320466C62C4F202033D60AB6236
:104B40004FF48073AB8505F0DEFC064608B101200A
:104B5000F8BD72B6FFF768FF382320466661E3614F
:104B60004FF4E0632661E3604FF48273A6606360F4
:104B70004FF400732662A36107236662A662E362B4
:104B800005F054FC04460028E1D13B680122998DD0
:104B9000986A01F036FE05F12E00FBF718FD05F1CD
:104BA0002E012846FBF71CFD0028D0D095F83430A4
:104BB000582BCCD14BF604030122C2F200031A7029
:104BC00062B62046F8BD00B54FF4807395B04FF043
:104BD00080720C9305230F92012206930023019209
:104BE00006A90D930E930B931193129313930093B5
:104BF0000493102303926A4602934FF480030593B3
:104C000003464DF2F470C2F2020002F060FD003083
:104C100018BF012015B05DF804FB00B54FF4807398
:104C200095B04DF2F47041F288320C93062306A938
:104C3000C2F20200069300230D930E930F930B9381
:104C400011931293139302F0F6FCF8B90223049027
:104C50004DF2F4706A46009306A901930123C2F253
:104C600002000393102302934FF48003059305235E
:104C700006934FF080730F9341F2883302F027FDC3
:104C8000003018BF012015B05DF804FB0120FAE7E1
:104C900030B54FF480738FB04DF2F474054606932F
:104CA000EB2301914FF0407100934FF44063099161
:104CB000C2F2020407934FF400530A210A920393AD
:104CC0000023059141F288326946204608930B93F0
:104CD0000C930D9302F0AFFC10B101200FB030BD6A
:104CE000226829462046536823F4E06343F40073A6
:104CF000536041F2883202F03CFE0028EDD1226878
:104D0000536823F4E06343F4A0635360E6E72DE9BE
:104D1000F0414FF480738EB0CCB24DF2F47606932E
:104D20001223C4F580748D1800934FF440639442AD
:104D3000074607934FF4005328BF14468846039351
:104D40004FF040720023C2F20206099208930593C5
:104D50000B930C930D93CDF804800A94FFF75DFF3D
:104D600018B101200EB0BDE8F0814DF2F47041F2AF
:104D700088326946C2F2020002F05DFC0028F0D1E0
:104D800041F288323946304602F08BFD0028E8D1E6
:104D900041F28830FFF717FF0028E2D1A0442744F2
:104DA00008F580739D4234BFA5EB08044FF480746E
:104DB0004545D0D8D6E700B54FF480738FB0069341
:104DC0002023019000934FF4806307934FF4005326
:104DD000039300230893099305930B930C930D936E
:104DE000FFF71BFF18B101200FB05DF804FB4DF277
:104DF000F47041F288326946C2F2020002F01BFCF4
:104E00000028F0D14FF44870FFF7DDFE003018BFE6
:104E10000120E9E74FF0807303604FF48053436053
:104E200083604FF48073C3604FF4803303610020CC
:104E3000704700B54FF4807391B04FF040724DF25F
:104E4000F4700893EB230B920A2202934FF4406311
:104E5000079210AA09934FF4005302A9C2F202006C
:104E60000593002342F8403D0A930D930E930F9350
:104E7000019302F087FC003018BF012011B05DF8EB
:104E800004FB4FF46053C4F202039A6B42F0020237
:104E9000F0B59A638DB09A6B4FF4806507A9092429
:104EA00002F00202C4F202050427002600922846FE
:104EB000009A9A6942F002029A619A6922F002020B
:104EC0009A611A6B42F002021A631A6B02F0020234
:104ED0000192019A1A6B42F002021A631A6B02F0F5
:104EE00002020292029A1A6B42F008021A631A6BCB
:104EF00002F008020392039A1A6B42F008021A6346
:104F00001A6B02F008020492049A1A6B42F0100223
:104F10001A631A6B02F010020592059A1A6B42F09E
:104F200008021A631B6B03F008030693069B4023D9
:104F30000793022308930123099303230A930A2367
:104F40000B9301F093FA28464FF4406507A90797A1
:104F5000C4F2020509960B9401F088FA4FF400633D
:104F600007A928460B94079301F080FA4FF4805369
:104F700007A928460B94079301F078FA4FF4805064
:104F800007A90797C4F202000B9401F06FFA4FF4DF
:104F9000005307A9284607930B9401F067FA32469D
:104FA0000F215C2000F0DAFD5C2000F00DFE0DB05A
:104FB000F0BDF0B54DF2F4744FF4805391B0C2F2ED
:104FC0000204CAF200032046236002F017FB0546E4
:104FD00000283ED101462046FFF753FF0423012657
:104FE0004FF08077A36010236660E36097FAA7F321
:104FF000B3FA83F32046A561013BE5612562236195
:105000004FF4A063636102F023FD10BB4FF4807581
:105010006623099041F288320A9002A90B9007900A
:105020000D900E900F9020460895029302F003FB1E
:1050300068B9992341F2883202A92046029302F00E
:10504000FAFA20B941F28830FFF7BDFD18B1042506
:1050500044E0012542E0852309900A9041F288321C
:10506000079002A90D900E900F902046089502938C
:105070000B970C9602F0DFFA0028E8D141F2883253
:105080000DF10701204602F074FC0028DFD1FFF784
:10509000C4FD05460028DAD18123F022029392FA5A
:1050A000A2F20A219DF80730B2FA82F2204603F0FC
:1050B0000F0301FA02F202A9134341F288328DF87C
:1050C000073002F0B8FA0028C1D141F288320DF160
:1050D0000701204602F0E5FB0028B8D1284611B0B0
:1050E000F0BD4BF608000023C2F20000437203F04B
:1050F00034BE13B54BF6080401A9C2F200042046E1
:1051000003F041FE10B9019802B010BD6068FBE7E2
:105110004FF4605382B0C4F202035A6942F0400275
:105120005A615A6922F040025A615A6B42F04002B9
:105130005A635B6B03F040030193019B4FF40063E0
:10514000C5F20603036002B0704707B54FF4006074
:1051500001234FF40051C4F202008DF8073001F032
:1051600049FB012802D100238DF807309DF8070084
:1051700003B05DF804FB07B5009313460A460146E9
:105180004DF64000C2F2020004F096FA003018BF5B
:10519000012003B05DF804FB07B5009313460A46EF
:1051A00001464DF64000C2F2020004F094FB0030CC
:1051B00018BF012003B05DF804FB0A4601464DF616
:1051C000400008B5C2F2020004F087FC003018BFAE
:1051D000012008BD4FF46053C4F202035A6C42F43C
:1051E00000622DE9F04F5A648FB05A6C06460EAC3F
:1051F0004FF4006002F400620327C4F202004FF093
:10520000040805920025059A4FF4804B1A6B4FF065
:10521000200A4FF4403942F480021A631A6B02F4F8
:1052200080020692069A1A6B42F004021A631A6B05
:1052300002F004020792079A1A6B42F008021A63FE
:105240001B6B0C9703F008030893089B02230A9337
:1052500001230B930C230D934FF4F85344F8143DA2
:10526000214601F003F94FF440602146CDF8248037
:10527000C4F202004BF6140401F0F8F800220E21EB
:10528000312000F06BFC312000F09EFCC2F20004E3
:105290004FF4805346F258404FF000614FF4806263
:1052A0006361C4F2020001934FF4000320602046C2
:1052B000E3624FF40013F463616003912261029290
:1052C0002363A560E560C4F818B0C4F81CA0C4F856
:1052D0002090C4F82480A762A66300F078FD2046E1
:1052E0004BF6740400F00AFD019BC2F2000403991E
:1052F000029A63614FF4000361604021E3624FF45E
:10530000001334642046236346F2A043A160C4F234
:1053100002032261E5602360C4F818B0C4F81CA041
:10532000C4F82090C4F82480A762A66300F04FFD63
:10533000204600F0E3FC2A460F213B2000F00EFC43
:105340003B2000F041FC2A460F21452000F006FCDE
:10535000452000F039FC0FB0BDE8F08F7FB54FF469
:1053600060534FF4006001A9C4F20203C4F20200CA
:105370001A6B42F004021A631B6B03F004030093E0
:10538000009B4FF4005301930023029301230393E6
:105390000323049301F06AF807B05DF804FB70B5CD
:1053A0004FF430534DF640040025C2F20204C4F21B
:1053B000010329462360102320466560A361A56090
:1053C000E56025616561FFF7C9FFFFF7BEFE0128B3
:1053D000064609D120462946FFF7FCFE204604F088
:1053E000AAFD18B1304670BD0226FBE74FF40061FC
:1053F000204604F0CBFD061C18BF0126F2E701464B
:105400004DF64000C2F2020004F0AEBD2DE9F743B4
:105410004BF6D4044DF6C40501264FF00008C2F245
:105420000004C2F202051027814621464FF6FF72A2
:105430002846CDF80480A660C4F80C8084E8C0003B
:1054400004F0B2FE304600F062FB022321464FF624
:10545000FF722846A660C4F80C8084E8880004F037
:10546000A3FE032321464FF6FF722846C4F80C80A2
:1054700084E888000823A36004F096FE4FF40873C4
:105480004FF6FF722146284601930423A66084E864
:105490008800019BE36004F087FE4946284604F03B
:1054A000A0FE03B0BDE8F08308B513460A460146E6
:1054B0004DF6C400C2F2020004F0D8FD003018BF5F
:1054C000012008BD08B513460A4601464DF6C40042
:1054D000C2F2020004F012FE003018BF012008BD25
:1054E00008B513460A4601464DF6C400C2F2020052
:1054F00004F0E1FD003018BF012008BD08B51346D7
:105500000A4601464DF6C400C2F2020004F01FFE36
:10551000003018BF012008BD4FF46053C4F20203ED
:105520009A6B42F0010270B59A638EB09A6B064690
:105530000EAC4FF4006002F001020025C4F202003C
:105540000192019A1A6B42F480021A631A6B02F4F8
:1055500080020292029A1A6B42F004021A631A6BDA
:1055600002F004020392039A1A6B42F008021A63D3
:105570001A6B02F008020492049A1A6B42F01002AD
:105580001A631A6B02F010020592059A1A6B42F028
:1055900020021A631A6B02F020020692069A1A6B16
:1055A00042F040021A631A6B02F040020792079A17
:1055B0001A6B42F080021A6301221B6B0B9203F0FC
:1055C00080030893089B02230A930C930C230D93EA
:1055D000082344F8143D214600F048FF4FF4406092
:1055E0004CF203732146C4F20200099300F03EFF1F
:1055F0004FF480504FF683732146C4F202000993A2
:1056000000F034FF4FF4A0504FF63F032146C4F2A0
:105610000200099300F02AFF4FF4C05048F2331300
:105620002146C4F20200099300F020FF4FF4E0503D
:10563000214628234BF60014C4F20200099300F01F
:1056400015FFC2F200048023A3604FF400732563AA
:105650002046E3604FF48063346323614FF480534A
:10566000656063614FF48043E561A3614FF40033EB
:10567000656223620323E562A36246F21043A663D8
:10568000C4F20203236000F0A2FB204600F036FBC8
:105690002A460F21382000F061FA382000F094FAF1
:1056A0000EB070BD38B54DF6C4044FF4A0734BF680
:1056B000E4050721C2F20204CAF20003C2F20005A7
:1056C000042223600223696020462B602B616B61FA
:1056D000AB611023E96000212361402361606361B5
:1056E0004FF48073A160A3614FF40063E260236212
:1056F0004FF48053E1616362A162AA60FFF70CFF7F
:1057000020464BF28004294604F091FCC2F20004CA
:1057100038B10123237040F20360FFF777FE207851
:1057200038BD2070F7E710B54DF6F8040A4600239F
:10573000C2F2020493420EDB4DF6F8014BF6601004
:105740006423C2F20201C2F2000005F0BEFD003087
:1057500018BF012010BDC15C19550133EAE74BF6B3
:105760006010C2F2000005F0C2BE10B54DF6F8049C
:105770000A460023C2F20204934217DB4DF6F801F9
:105780004BF660106423C2F20201C2F2000005F081
:105790009CFD4DF65C114BF660100122C2F2020135
:1057A000C2F20000BDE8104005F01ABEC15C1955F8
:1057B0000133E1E708B5252000220F2100F0CEF9E2
:1057C0002520BDE8084000F0FFB938B54BF660145D
:1057D0004FF48053C2F20004C4F201032046236058
:1057E00005F027FD08B1012038BD4FF4E132214614
:1057F000E06162600C2220616261E060A060FCF701
:105800006BFA05460028EED1FFF7D4FF4DF65C1188
:1058100001222046C2F2020105F0E2FD284638BD11
:105820004BF60223C2F2000310B518804BF20004BD
:105830004BF604237020C2F20004C2F20003198068
:1058400023689847636870209847512814D14BF615
:10585000FC1370200822C2F200031C604BF6D01328
:10586000C2F2000318704BF60023C2F200031A7054
:10587000E3689847002010BD032010BD4BF6D013FD
:1058800037B5C2F2000302A900240546187841F892
:10589000044DFBF7FDF90198182817D009D81028F6
:1058A0000FD0142810D0B8B90446A862204603B01F
:1058B00030BD40280CD049280CD01C280CD1042322
:1058C00000E00123AB62F1E70223FBE70323F9E7E2
:1058D0000523F7E70623F5E70124E7E72DE9F04F75
:1058E0004BF6FC154BF6D01697B00024C2F200051B
:1058F000C2F20006834607942B68089409941B693A
